{
	"VotingContract.sol": {
		"VotingContract": {
			"abi": [
				{
					"inputs": [],
					"stateMutability": "nonpayable",
					"type": "constructor"
				},
				{
					"anonymous": false,
					"inputs": [
						{
							"indexed": false,
							"internalType": "address",
							"name": "recipient",
							"type": "address"
						},
						{
							"indexed": false,
							"internalType": "uint256",
							"name": "amount",
							"type": "uint256"
						}
					],
					"name": "RewardSent",
					"type": "event"
				},
				{
					"anonymous": false,
					"inputs": [
						{
							"indexed": false,
							"internalType": "uint256",
							"name": "topicId",
							"type": "uint256"
						},
						{
							"indexed": false,
							"internalType": "string",
							"name": "title",
							"type": "string"
						},
						{
							"indexed": false,
							"internalType": "string",
							"name": "description",
							"type": "string"
						}
					],
					"name": "TopicAdded",
					"type": "event"
				},
				{
					"anonymous": false,
					"inputs": [
						{
							"indexed": false,
							"internalType": "uint256",
							"name": "topicId",
							"type": "uint256"
						},
						{
							"indexed": false,
							"internalType": "address",
							"name": "voter",
							"type": "address"
						}
					],
					"name": "VoteCasted",
					"type": "event"
				},
				{
					"anonymous": false,
					"inputs": [
						{
							"indexed": false,
							"internalType": "uint256",
							"name": "topicId",
							"type": "uint256"
						}
					],
					"name": "VotingClosed",
					"type": "event"
				},
				{
					"anonymous": false,
					"inputs": [
						{
							"indexed": false,
							"internalType": "uint256",
							"name": "topicId",
							"type": "uint256"
						}
					],
					"name": "VotingStarted",
					"type": "event"
				},
				{
					"inputs": [
						{
							"internalType": "string",
							"name": "_title",
							"type": "string"
						},
						{
							"internalType": "string",
							"name": "_description",
							"type": "string"
						}
					],
					"name": "addTopic",
					"outputs": [],
					"stateMutability": "nonpayable",
					"type": "function"
				},
				{
					"inputs": [
						{
							"internalType": "uint256",
							"name": "_topicId",
							"type": "uint256"
						}
					],
					"name": "closeVoting",
					"outputs": [],
					"stateMutability": "nonpayable",
					"type": "function"
				},
				{
					"inputs": [],
					"name": "manager",
					"outputs": [
						{
							"internalType": "address",
							"name": "",
							"type": "address"
						}
					],
					"stateMutability": "view",
					"type": "function"
				},
				{
					"inputs": [
						{
							"internalType": "address",
							"name": "",
							"type": "address"
						}
					],
					"name": "scores",
					"outputs": [
						{
							"internalType": "uint256",
							"name": "",
							"type": "uint256"
						}
					],
					"stateMutability": "view",
					"type": "function"
				},
				{
					"inputs": [
						{
							"internalType": "address",
							"name": "_manager",
							"type": "address"
						}
					],
					"name": "setManager",
					"outputs": [],
					"stateMutability": "nonpayable",
					"type": "function"
				},
				{
					"inputs": [
						{
							"internalType": "uint256",
							"name": "_topicId",
							"type": "uint256"
						}
					],
					"name": "startVoting",
					"outputs": [],
					"stateMutability": "nonpayable",
					"type": "function"
				},
				{
					"inputs": [],
					"name": "topicCount",
					"outputs": [
						{
							"internalType": "uint256",
							"name": "",
							"type": "uint256"
						}
					],
					"stateMutability": "view",
					"type": "function"
				},
				{
					"inputs": [
						{
							"internalType": "uint256",
							"name": "",
							"type": "uint256"
						}
					],
					"name": "topics",
					"outputs": [
						{
							"internalType": "string",
							"name": "title",
							"type": "string"
						},
						{
							"internalType": "string",
							"name": "description",
							"type": "string"
						}
					],
					"stateMutability": "view",
					"type": "function"
				},
				{
					"inputs": [
						{
							"internalType": "uint256",
							"name": "_topicId",
							"type": "uint256"
						}
					],
					"name": "vote",
					"outputs": [],
					"stateMutability": "nonpayable",
					"type": "function"
				},
				{
					"inputs": [],
					"name": "votingOpen",
					"outputs": [
						{
							"internalType": "bool",
							"name": "",
							"type": "bool"
						}
					],
					"stateMutability": "view",
					"type": "function"
				}
			],
			"devdoc": {
				"kind": "dev",
				"methods": {},
				"version": 1
			},
			"evm": {
				"assembly": "    /* \"VotingContract.sol\":57:2981  contract VotingContract {... */\n  mstore(0x40, 0x80)\n    /* \"VotingContract.sol\":824:907  constructor() {... */\n  callvalue\n  dup1\n  iszero\n  tag_1\n  jumpi\n  0x00\n  dup1\n  revert\ntag_1:\n  pop\n    /* \"VotingContract.sol\":858:900  0x3B73a7b541e5e268147895a754eD9B0a71b1AB79 */\n  0x3b73a7b541e5e268147895a754ed9b0a71b1ab79\n    /* \"VotingContract.sol\":848:855  manager */\n  0x00\n  dup1\n    /* \"VotingContract.sol\":848:900  manager = 0x3B73a7b541e5e268147895a754eD9B0a71b1AB79 */\n  0x0100\n  exp\n  dup2\n  sload\n  dup2\n  0xffffffffffffffffffffffffffffffffffffffff\n  mul\n  not\n  and\n  swap1\n  dup4\n  0xffffffffffffffffffffffffffffffffffffffff\n  and\n  mul\n  or\n  swap1\n  sstore\n  pop\n    /* \"VotingContract.sol\":57:2981  contract VotingContract {... */\n  dataSize(sub_0)\n  dup1\n  dataOffset(sub_0)\n  0x00\n  codecopy\n  0x00\n  return\nstop\n\nsub_0: assembly {\n        /* \"VotingContract.sol\":57:2981  contract VotingContract {... */\n      mstore(0x40, 0x80)\n      callvalue\n      dup1\n      iszero\n      tag_1\n      jumpi\n      0x00\n      dup1\n      revert\n    tag_1:\n      pop\n      jumpi(tag_2, lt(calldatasize, 0x04))\n      shr(0xe0, calldataload(0x00))\n      dup1\n      0xa95824b4\n      gt\n      tag_13\n      jumpi\n      dup1\n      0xa95824b4\n      eq\n      tag_8\n      jumpi\n      dup1\n      0xc1e6adfd\n      eq\n      tag_9\n      jumpi\n      dup1\n      0xd0ebdbe7\n      eq\n      tag_10\n      jumpi\n      dup1\n      0xd2111a72\n      eq\n      tag_11\n      jumpi\n      dup1\n      0xf315f553\n      eq\n      tag_12\n      jumpi\n      jump(tag_2)\n    tag_13:\n      dup1\n      0x0121b93f\n      eq\n      tag_3\n      jumpi\n      dup1\n      0x18d9adab\n      eq\n      tag_4\n      jumpi\n      dup1\n      0x3d2f5bda\n      eq\n      tag_5\n      jumpi\n      dup1\n      0x481c6a75\n      eq\n      tag_6\n      jumpi\n      dup1\n      0x76dd110f\n      eq\n      tag_7\n      jumpi\n    tag_2:\n      0x00\n      dup1\n      revert\n        /* \"VotingContract.sol\":2058:2527  function vote(uint256 _topicId) external {... */\n    tag_3:\n      tag_14\n      0x04\n      dup1\n      calldatasize\n      sub\n      dup2\n      add\n      swap1\n      tag_15\n      swap2\n      swap1\n      tag_16\n      jump\t// in\n    tag_15:\n      tag_17\n      jump\t// in\n    tag_14:\n      stop\n        /* \"VotingContract.sol\":271:310  mapping(uint256 => Topic) public topics */\n    tag_4:\n      tag_18\n      0x04\n      dup1\n      calldatasize\n      sub\n      dup2\n      add\n      swap1\n      tag_19\n      swap2\n      swap1\n      tag_16\n      jump\t// in\n    tag_19:\n      tag_20\n      jump\t// in\n    tag_18:\n      mload(0x40)\n      tag_21\n      swap3\n      swap2\n      swap1\n      tag_22\n      jump\t// in\n    tag_21:\n      mload(0x40)\n      dup1\n      swap2\n      sub\n      swap1\n      return\n        /* \"VotingContract.sol\":1355:1614  function startVoting(uint256 _topicId) external onlyManager {... */\n    tag_5:\n      tag_23\n      0x04\n      dup1\n      calldatasize\n      sub\n      dup2\n      add\n      swap1\n      tag_24\n      swap2\n      swap1\n      tag_16\n      jump\t// in\n    tag_24:\n      tag_25\n      jump\t// in\n    tag_23:\n      stop\n        /* \"VotingContract.sol\":87:109  address public manager */\n    tag_6:\n      tag_26\n      tag_27\n      jump\t// in\n    tag_26:\n      mload(0x40)\n      tag_28\n      swap2\n      swap1\n      tag_29\n      jump\t// in\n    tag_28:\n      mload(0x40)\n      dup1\n      swap2\n      sub\n      swap1\n      return\n        /* \"VotingContract.sol\":352:393  mapping(address => uint256) public scores */\n    tag_7:\n      tag_30\n      0x04\n      dup1\n      calldatasize\n      sub\n      dup2\n      add\n      swap1\n      tag_31\n      swap2\n      swap1\n      tag_32\n      jump\t// in\n    tag_31:\n      tag_33\n      jump\t// in\n    tag_30:\n      mload(0x40)\n      tag_34\n      swap2\n      swap1\n      tag_35\n      jump\t// in\n    tag_34:\n      mload(0x40)\n      dup1\n      swap2\n      sub\n      swap1\n      return\n        /* \"VotingContract.sol\":115:137  bool public votingOpen */\n    tag_8:\n      tag_36\n      tag_37\n      jump\t// in\n    tag_36:\n      mload(0x40)\n      tag_38\n      swap2\n      swap1\n      tag_39\n      jump\t// in\n    tag_38:\n      mload(0x40)\n      dup1\n      swap2\n      sub\n      swap1\n      return\n        /* \"VotingContract.sol\":1021:1345  function addTopic(string calldata _title, string calldata _description) external onlyManager {... */\n    tag_9:\n      tag_40\n      0x04\n      dup1\n      calldatasize\n      sub\n      dup2\n      add\n      swap1\n      tag_41\n      swap2\n      swap1\n      tag_42\n      jump\t// in\n    tag_41:\n      tag_43\n      jump\t// in\n    tag_40:\n      stop\n        /* \"VotingContract.sol\":917:1011  function setManager(address _manager) external onlyManager {... */\n    tag_10:\n      tag_44\n      0x04\n      dup1\n      calldatasize\n      sub\n      dup2\n      add\n      swap1\n      tag_45\n      swap2\n      swap1\n      tag_32\n      jump\t// in\n    tag_45:\n      tag_46\n      jump\t// in\n    tag_44:\n      stop\n        /* \"VotingContract.sol\":1624:2048  function closeVoting(uint256 _topicId) external onlyManager {... */\n    tag_11:\n      tag_47\n      0x04\n      dup1\n      calldatasize\n      sub\n      dup2\n      add\n      swap1\n      tag_48\n      swap2\n      swap1\n      tag_16\n      jump\t// in\n    tag_48:\n      tag_49\n      jump\t// in\n    tag_47:\n      stop\n        /* \"VotingContract.sol\":316:341  uint256 public topicCount */\n    tag_12:\n      tag_50\n      tag_51\n      jump\t// in\n    tag_50:\n      mload(0x40)\n      tag_52\n      swap2\n      swap1\n      tag_35\n      jump\t// in\n    tag_52:\n      mload(0x40)\n      dup1\n      swap2\n      sub\n      swap1\n      return\n        /* \"VotingContract.sol\":2058:2527  function vote(uint256 _topicId) external {... */\n    tag_17:\n        /* \"VotingContract.sol\":2117:2127  votingOpen */\n      0x00\n      0x14\n      swap1\n      sload\n      swap1\n      0x0100\n      exp\n      swap1\n      div\n      0xff\n      and\n        /* \"VotingContract.sol\":2109:2151  require(votingOpen, \"Voting is not open.\") */\n      tag_54\n      jumpi\n      mload(0x40)\n      0x08c379a000000000000000000000000000000000000000000000000000000000\n      dup2\n      mstore\n      0x04\n      add\n      tag_55\n      swap1\n      tag_56\n      jump\t// in\n    tag_55:\n      mload(0x40)\n      dup1\n      swap2\n      sub\n      swap1\n      revert\n    tag_54:\n        /* \"VotingContract.sol\":2180:2190  topicCount */\n      sload(0x02)\n        /* \"VotingContract.sol\":2169:2177  _topicId */\n      dup2\n        /* \"VotingContract.sol\":2169:2190  _topicId < topicCount */\n      lt\n        /* \"VotingContract.sol\":2161:2212  require(_topicId < topicCount, \"Invalid topic ID.\") */\n      tag_57\n      jumpi\n      mload(0x40)\n      0x08c379a000000000000000000000000000000000000000000000000000000000\n      dup2\n      mstore\n      0x04\n      add\n      tag_58\n      swap1\n      tag_59\n      jump\t// in\n    tag_58:\n      mload(0x40)\n      dup1\n      swap2\n      sub\n      swap1\n      revert\n    tag_57:\n        /* \"VotingContract.sol\":2231:2250  Topic storage topic */\n      0x00\n        /* \"VotingContract.sol\":2253:2259  topics */\n      0x01\n        /* \"VotingContract.sol\":2253:2269  topics[_topicId] */\n      0x00\n        /* \"VotingContract.sol\":2260:2268  _topicId */\n      dup4\n        /* \"VotingContract.sol\":2253:2269  topics[_topicId] */\n      dup2\n      mstore\n      0x20\n      add\n      swap1\n      dup2\n      mstore\n      0x20\n      add\n      0x00\n      keccak256\n        /* \"VotingContract.sol\":2231:2269  Topic storage topic = topics[_topicId] */\n      swap1\n      pop\n        /* \"VotingContract.sol\":2315:2316  0 */\n      0x00\n        /* \"VotingContract.sol\":2293:2298  topic */\n      dup2\n        /* \"VotingContract.sol\":2293:2304  topic.title */\n      0x00\n      add\n        /* \"VotingContract.sol\":2287:2312  bytes(topic.title).length */\n      dup1\n      sload\n      tag_60\n      swap1\n      tag_61\n      jump\t// in\n    tag_60:\n      swap1\n      pop\n        /* \"VotingContract.sol\":2287:2316  bytes(topic.title).length > 0 */\n      gt\n        /* \"VotingContract.sol\":2279:2342  require(bytes(topic.title).length > 0, \"Topic does not exist.\") */\n      tag_62\n      jumpi\n      mload(0x40)\n      0x08c379a000000000000000000000000000000000000000000000000000000000\n      dup2\n      mstore\n      0x04\n      add\n      tag_63\n      swap1\n      tag_64\n      jump\t// in\n    tag_63:\n      mload(0x40)\n      dup1\n      swap2\n      sub\n      swap1\n      revert\n    tag_62:\n        /* \"VotingContract.sol\":2361:2366  topic */\n      dup1\n        /* \"VotingContract.sol\":2361:2375  topic.hasVoted */\n      0x02\n      add\n        /* \"VotingContract.sol\":2361:2387  topic.hasVoted[msg.sender] */\n      0x00\n        /* \"VotingContract.sol\":2376:2386  msg.sender */\n      caller\n        /* \"VotingContract.sol\":2361:2387  topic.hasVoted[msg.sender] */\n      0xffffffffffffffffffffffffffffffffffffffff\n      and\n      0xffffffffffffffffffffffffffffffffffffffff\n      and\n      dup2\n      mstore\n      0x20\n      add\n      swap1\n      dup2\n      mstore\n      0x20\n      add\n      0x00\n      keccak256\n      0x00\n      swap1\n      sload\n      swap1\n      0x0100\n      exp\n      swap1\n      div\n      0xff\n      and\n        /* \"VotingContract.sol\":2360:2387  !topic.hasVoted[msg.sender] */\n      iszero\n        /* \"VotingContract.sol\":2352:2421  require(!topic.hasVoted[msg.sender], \"Already voted for this topic.\") */\n      tag_65\n      jumpi\n      mload(0x40)\n      0x08c379a000000000000000000000000000000000000000000000000000000000\n      dup2\n      mstore\n      0x04\n      add\n      tag_66\n      swap1\n      tag_67\n      jump\t// in\n    tag_66:\n      mload(0x40)\n      dup1\n      swap2\n      sub\n      swap1\n      revert\n    tag_65:\n        /* \"VotingContract.sol\":2469:2473  true */\n      0x01\n        /* \"VotingContract.sol\":2440:2445  topic */\n      dup2\n        /* \"VotingContract.sol\":2440:2454  topic.hasVoted */\n      0x02\n      add\n        /* \"VotingContract.sol\":2440:2466  topic.hasVoted[msg.sender] */\n      0x00\n        /* \"VotingContract.sol\":2455:2465  msg.sender */\n      caller\n        /* \"VotingContract.sol\":2440:2466  topic.hasVoted[msg.sender] */\n      0xffffffffffffffffffffffffffffffffffffffff\n      and\n      0xffffffffffffffffffffffffffffffffffffffff\n      and\n      dup2\n      mstore\n      0x20\n      add\n      swap1\n      dup2\n      mstore\n      0x20\n      add\n      0x00\n      keccak256\n      0x00\n        /* \"VotingContract.sol\":2440:2473  topic.hasVoted[msg.sender] = true */\n      0x0100\n      exp\n      dup2\n      sload\n      dup2\n      0xff\n      mul\n      not\n      and\n      swap1\n      dup4\n      iszero\n      iszero\n      mul\n      or\n      swap1\n      sstore\n      pop\n        /* \"VotingContract.sol\":2488:2520  VoteCasted(_topicId, msg.sender) */\n      0xd8d46ecf72f6103ff400e47d1b5fdfe248d4ca34a4acd39f63fbe903c8f7e7bd\n        /* \"VotingContract.sol\":2499:2507  _topicId */\n      dup3\n        /* \"VotingContract.sol\":2509:2519  msg.sender */\n      caller\n        /* \"VotingContract.sol\":2488:2520  VoteCasted(_topicId, msg.sender) */\n      mload(0x40)\n      tag_68\n      swap3\n      swap2\n      swap1\n      tag_69\n      jump\t// in\n    tag_68:\n      mload(0x40)\n      dup1\n      swap2\n      sub\n      swap1\n      log1\n        /* \"VotingContract.sol\":2099:2527  {... */\n      pop\n        /* \"VotingContract.sol\":2058:2527  function vote(uint256 _topicId) external {... */\n      pop\n      jump\t// out\n        /* \"VotingContract.sol\":271:310  mapping(uint256 => Topic) public topics */\n    tag_20:\n      mstore(0x20, 0x01)\n      dup1\n      0x00\n      mstore\n      keccak256(0x00, 0x40)\n      0x00\n      swap2\n      pop\n      swap1\n      pop\n      dup1\n      0x00\n      add\n      dup1\n      sload\n      tag_70\n      swap1\n      tag_61\n      jump\t// in\n    tag_70:\n      dup1\n      0x1f\n      add\n      0x20\n      dup1\n      swap2\n      div\n      mul\n      0x20\n      add\n      mload(0x40)\n      swap1\n      dup2\n      add\n      0x40\n      mstore\n      dup1\n      swap3\n      swap2\n      swap1\n      dup2\n      dup2\n      mstore\n      0x20\n      add\n      dup3\n      dup1\n      sload\n      tag_71\n      swap1\n      tag_61\n      jump\t// in\n    tag_71:\n      dup1\n      iszero\n      tag_72\n      jumpi\n      dup1\n      0x1f\n      lt\n      tag_73\n      jumpi\n      0x0100\n      dup1\n      dup4\n      sload\n      div\n      mul\n      dup4\n      mstore\n      swap2\n      0x20\n      add\n      swap2\n      jump(tag_72)\n    tag_73:\n      dup3\n      add\n      swap2\n      swap1\n      0x00\n      mstore\n      keccak256(0x00, 0x20)\n      swap1\n    tag_74:\n      dup2\n      sload\n      dup2\n      mstore\n      swap1\n      0x01\n      add\n      swap1\n      0x20\n      add\n      dup1\n      dup4\n      gt\n      tag_74\n      jumpi\n      dup3\n      swap1\n      sub\n      0x1f\n      and\n      dup3\n      add\n      swap2\n    tag_72:\n      pop\n      pop\n      pop\n      pop\n      pop\n      swap1\n      dup1\n      0x01\n      add\n      dup1\n      sload\n      tag_75\n      swap1\n      tag_61\n      jump\t// in\n    tag_75:\n      dup1\n      0x1f\n      add\n      0x20\n      dup1\n      swap2\n      div\n      mul\n      0x20\n      add\n      mload(0x40)\n      swap1\n      dup2\n      add\n      0x40\n      mstore\n      dup1\n      swap3\n      swap2\n      swap1\n      dup2\n      dup2\n      mstore\n      0x20\n      add\n      dup3\n      dup1\n      sload\n      tag_76\n      swap1\n      tag_61\n      jump\t// in\n    tag_76:\n      dup1\n      iszero\n      tag_77\n      jumpi\n      dup1\n      0x1f\n      lt\n      tag_78\n      jumpi\n      0x0100\n      dup1\n      dup4\n      sload\n      div\n      mul\n      dup4\n      mstore\n      swap2\n      0x20\n      add\n      swap2\n      jump(tag_77)\n    tag_78:\n      dup3\n      add\n      swap2\n      swap1\n      0x00\n      mstore\n      keccak256(0x00, 0x20)\n      swap1\n    tag_79:\n      dup2\n      sload\n      dup2\n      mstore\n      swap1\n      0x01\n      add\n      swap1\n      0x20\n      add\n      dup1\n      dup4\n      gt\n      tag_79\n      jumpi\n      dup3\n      swap1\n      sub\n      0x1f\n      and\n      dup3\n      add\n      swap2\n    tag_77:\n      pop\n      pop\n      pop\n      pop\n      pop\n      swap1\n      pop\n      dup3\n      jump\t// out\n        /* \"VotingContract.sol\":1355:1614  function startVoting(uint256 _topicId) external onlyManager {... */\n    tag_25:\n        /* \"VotingContract.sol\":475:482  manager */\n      0x00\n      dup1\n      sload\n      swap1\n      0x0100\n      exp\n      swap1\n      div\n      0xffffffffffffffffffffffffffffffffffffffff\n      and\n        /* \"VotingContract.sol\":461:482  msg.sender == manager */\n      0xffffffffffffffffffffffffffffffffffffffff\n      and\n        /* \"VotingContract.sol\":461:471  msg.sender */\n      caller\n        /* \"VotingContract.sol\":461:482  msg.sender == manager */\n      0xffffffffffffffffffffffffffffffffffffffff\n      and\n      eq\n        /* \"VotingContract.sol\":453:524  require(msg.sender == manager, \"Only manager can perform this action.\") */\n      tag_81\n      jumpi\n      mload(0x40)\n      0x08c379a000000000000000000000000000000000000000000000000000000000\n      dup2\n      mstore\n      0x04\n      add\n      tag_82\n      swap1\n      tag_83\n      jump\t// in\n    tag_82:\n      mload(0x40)\n      dup1\n      swap2\n      sub\n      swap1\n      revert\n    tag_81:\n        /* \"VotingContract.sol\":1434:1444  votingOpen */\n      0x00\n      0x14\n      swap1\n      sload\n      swap1\n      0x0100\n      exp\n      swap1\n      div\n      0xff\n      and\n        /* \"VotingContract.sol\":1433:1444  !votingOpen */\n      iszero\n        /* \"VotingContract.sol\":1425:1472  require(!votingOpen, \"Voting is already open.\") */\n      tag_85\n      jumpi\n      mload(0x40)\n      0x08c379a000000000000000000000000000000000000000000000000000000000\n      dup2\n      mstore\n      0x04\n      add\n      tag_86\n      swap1\n      tag_87\n      jump\t// in\n    tag_86:\n      mload(0x40)\n      dup1\n      swap2\n      sub\n      swap1\n      revert\n    tag_85:\n        /* \"VotingContract.sol\":1501:1511  topicCount */\n      sload(0x02)\n        /* \"VotingContract.sol\":1490:1498  _topicId */\n      dup2\n        /* \"VotingContract.sol\":1490:1511  _topicId < topicCount */\n      lt\n        /* \"VotingContract.sol\":1482:1533  require(_topicId < topicCount, \"Invalid topic ID.\") */\n      tag_88\n      jumpi\n      mload(0x40)\n      0x08c379a000000000000000000000000000000000000000000000000000000000\n      dup2\n      mstore\n      0x04\n      add\n      tag_89\n      swap1\n      tag_59\n      jump\t// in\n    tag_89:\n      mload(0x40)\n      dup1\n      swap2\n      sub\n      swap1\n      revert\n    tag_88:\n        /* \"VotingContract.sol\":1565:1569  true */\n      0x01\n        /* \"VotingContract.sol\":1552:1562  votingOpen */\n      0x00\n      0x14\n        /* \"VotingContract.sol\":1552:1569  votingOpen = true */\n      0x0100\n      exp\n      dup2\n      sload\n      dup2\n      0xff\n      mul\n      not\n      and\n      swap1\n      dup4\n      iszero\n      iszero\n      mul\n      or\n      swap1\n      sstore\n      pop\n        /* \"VotingContract.sol\":1584:1607  VotingStarted(_topicId) */\n      0xcf33babc496bb6dc2942b39cb7b75766bbbadf7da50d176ff8c513e991140239\n        /* \"VotingContract.sol\":1598:1606  _topicId */\n      dup2\n        /* \"VotingContract.sol\":1584:1607  VotingStarted(_topicId) */\n      mload(0x40)\n      tag_90\n      swap2\n      swap1\n      tag_35\n      jump\t// in\n    tag_90:\n      mload(0x40)\n      dup1\n      swap2\n      sub\n      swap1\n      log1\n        /* \"VotingContract.sol\":1355:1614  function startVoting(uint256 _topicId) external onlyManager {... */\n      pop\n      jump\t// out\n        /* \"VotingContract.sol\":87:109  address public manager */\n    tag_27:\n      0x00\n      dup1\n      sload\n      swap1\n      0x0100\n      exp\n      swap1\n      div\n      0xffffffffffffffffffffffffffffffffffffffff\n      and\n      dup2\n      jump\t// out\n        /* \"VotingContract.sol\":352:393  mapping(address => uint256) public scores */\n    tag_33:\n      mstore(0x20, 0x03)\n      dup1\n      0x00\n      mstore\n      keccak256(0x00, 0x40)\n      0x00\n      swap2\n      pop\n      swap1\n      pop\n      sload\n      dup2\n      jump\t// out\n        /* \"VotingContract.sol\":115:137  bool public votingOpen */\n    tag_37:\n      0x00\n      0x14\n      swap1\n      sload\n      swap1\n      0x0100\n      exp\n      swap1\n      div\n      0xff\n      and\n      dup2\n      jump\t// out\n        /* \"VotingContract.sol\":1021:1345  function addTopic(string calldata _title, string calldata _description) external onlyManager {... */\n    tag_43:\n        /* \"VotingContract.sol\":475:482  manager */\n      0x00\n      dup1\n      sload\n      swap1\n      0x0100\n      exp\n      swap1\n      div\n      0xffffffffffffffffffffffffffffffffffffffff\n      and\n        /* \"VotingContract.sol\":461:482  msg.sender == manager */\n      0xffffffffffffffffffffffffffffffffffffffff\n      and\n        /* \"VotingContract.sol\":461:471  msg.sender */\n      caller\n        /* \"VotingContract.sol\":461:482  msg.sender == manager */\n      0xffffffffffffffffffffffffffffffffffffffff\n      and\n      eq\n        /* \"VotingContract.sol\":453:524  require(msg.sender == manager, \"Only manager can perform this action.\") */\n      tag_92\n      jumpi\n      mload(0x40)\n      0x08c379a000000000000000000000000000000000000000000000000000000000\n      dup2\n      mstore\n      0x04\n      add\n      tag_93\n      swap1\n      tag_83\n      jump\t// in\n    tag_93:\n      mload(0x40)\n      dup1\n      swap2\n      sub\n      swap1\n      revert\n    tag_92:\n        /* \"VotingContract.sol\":1124:1139  uint256 topicId */\n      0x00\n        /* \"VotingContract.sol\":1142:1152  topicCount */\n      0x02\n      0x00\n        /* \"VotingContract.sol\":1142:1154  topicCount++ */\n      dup2\n      sload\n      dup1\n      swap3\n      swap2\n      swap1\n      tag_95\n      swap1\n      tag_96\n      jump\t// in\n    tag_95:\n      swap2\n      swap1\n      pop\n      sstore\n        /* \"VotingContract.sol\":1124:1154  uint256 topicId = topicCount++ */\n      swap1\n      pop\n        /* \"VotingContract.sol\":1164:1186  Topic storage newTopic */\n      0x00\n        /* \"VotingContract.sol\":1189:1195  topics */\n      0x01\n        /* \"VotingContract.sol\":1189:1204  topics[topicId] */\n      0x00\n        /* \"VotingContract.sol\":1196:1203  topicId */\n      dup4\n        /* \"VotingContract.sol\":1189:1204  topics[topicId] */\n      dup2\n      mstore\n      0x20\n      add\n      swap1\n      dup2\n      mstore\n      0x20\n      add\n      0x00\n      keccak256\n        /* \"VotingContract.sol\":1164:1204  Topic storage newTopic = topics[topicId] */\n      swap1\n      pop\n        /* \"VotingContract.sol\":1231:1237  _title */\n      dup6\n      dup6\n        /* \"VotingContract.sol\":1214:1222  newTopic */\n      dup3\n        /* \"VotingContract.sol\":1214:1228  newTopic.title */\n      0x00\n      add\n        /* \"VotingContract.sol\":1214:1237  newTopic.title = _title */\n      swap2\n      dup3\n      tag_97\n      swap3\n      swap2\n      swap1\n      tag_98\n      jump\t// in\n    tag_97:\n      pop\n        /* \"VotingContract.sol\":1270:1282  _description */\n      dup4\n      dup4\n        /* \"VotingContract.sol\":1247:1255  newTopic */\n      dup3\n        /* \"VotingContract.sol\":1247:1267  newTopic.description */\n      0x01\n      add\n        /* \"VotingContract.sol\":1247:1282  newTopic.description = _description */\n      swap2\n      dup3\n      tag_99\n      swap3\n      swap2\n      swap1\n      tag_98\n      jump\t// in\n    tag_99:\n      pop\n        /* \"VotingContract.sol\":1297:1338  TopicAdded(topicId, _title, _description) */\n      0x291e52a7839d5bcf62927959ebe247c310dcf9a518aad0be9cc3de6f3f6ab4f0\n        /* \"VotingContract.sol\":1308:1315  topicId */\n      dup3\n        /* \"VotingContract.sol\":1317:1323  _title */\n      dup8\n      dup8\n        /* \"VotingContract.sol\":1325:1337  _description */\n      dup8\n      dup8\n        /* \"VotingContract.sol\":1297:1338  TopicAdded(topicId, _title, _description) */\n      mload(0x40)\n      tag_100\n      swap6\n      swap5\n      swap4\n      swap3\n      swap2\n      swap1\n      tag_101\n      jump\t// in\n    tag_100:\n      mload(0x40)\n      dup1\n      swap2\n      sub\n      swap1\n      log1\n        /* \"VotingContract.sol\":1114:1345  {... */\n      pop\n      pop\n        /* \"VotingContract.sol\":1021:1345  function addTopic(string calldata _title, string calldata _description) external onlyManager {... */\n      pop\n      pop\n      pop\n      pop\n      jump\t// out\n        /* \"VotingContract.sol\":917:1011  function setManager(address _manager) external onlyManager {... */\n    tag_46:\n        /* \"VotingContract.sol\":475:482  manager */\n      0x00\n      dup1\n      sload\n      swap1\n      0x0100\n      exp\n      swap1\n      div\n      0xffffffffffffffffffffffffffffffffffffffff\n      and\n        /* \"VotingContract.sol\":461:482  msg.sender == manager */\n      0xffffffffffffffffffffffffffffffffffffffff\n      and\n        /* \"VotingContract.sol\":461:471  msg.sender */\n      caller\n        /* \"VotingContract.sol\":461:482  msg.sender == manager */\n      0xffffffffffffffffffffffffffffffffffffffff\n      and\n      eq\n        /* \"VotingContract.sol\":453:524  require(msg.sender == manager, \"Only manager can perform this action.\") */\n      tag_103\n      jumpi\n      mload(0x40)\n      0x08c379a000000000000000000000000000000000000000000000000000000000\n      dup2\n      mstore\n      0x04\n      add\n      tag_104\n      swap1\n      tag_83\n      jump\t// in\n    tag_104:\n      mload(0x40)\n      dup1\n      swap2\n      sub\n      swap1\n      revert\n    tag_103:\n        /* \"VotingContract.sol\":996:1004  _manager */\n      dup1\n        /* \"VotingContract.sol\":986:993  manager */\n      0x00\n      dup1\n        /* \"VotingContract.sol\":986:1004  manager = _manager */\n      0x0100\n      exp\n      dup2\n      sload\n      dup2\n      0xffffffffffffffffffffffffffffffffffffffff\n      mul\n      not\n      and\n      swap1\n      dup4\n      0xffffffffffffffffffffffffffffffffffffffff\n      and\n      mul\n      or\n      swap1\n      sstore\n      pop\n        /* \"VotingContract.sol\":917:1011  function setManager(address _manager) external onlyManager {... */\n      pop\n      jump\t// out\n        /* \"VotingContract.sol\":1624:2048  function closeVoting(uint256 _topicId) external onlyManager {... */\n    tag_49:\n        /* \"VotingContract.sol\":475:482  manager */\n      0x00\n      dup1\n      sload\n      swap1\n      0x0100\n      exp\n      swap1\n      div\n      0xffffffffffffffffffffffffffffffffffffffff\n      and\n        /* \"VotingContract.sol\":461:482  msg.sender == manager */\n      0xffffffffffffffffffffffffffffffffffffffff\n      and\n        /* \"VotingContract.sol\":461:471  msg.sender */\n      caller\n        /* \"VotingContract.sol\":461:482  msg.sender == manager */\n      0xffffffffffffffffffffffffffffffffffffffff\n      and\n      eq\n        /* \"VotingContract.sol\":453:524  require(msg.sender == manager, \"Only manager can perform this action.\") */\n      tag_107\n      jumpi\n      mload(0x40)\n      0x08c379a000000000000000000000000000000000000000000000000000000000\n      dup2\n      mstore\n      0x04\n      add\n      tag_108\n      swap1\n      tag_83\n      jump\t// in\n    tag_108:\n      mload(0x40)\n      dup1\n      swap2\n      sub\n      swap1\n      revert\n    tag_107:\n        /* \"VotingContract.sol\":1702:1712  votingOpen */\n      0x00\n      0x14\n      swap1\n      sload\n      swap1\n      0x0100\n      exp\n      swap1\n      div\n      0xff\n      and\n        /* \"VotingContract.sol\":1694:1736  require(votingOpen, \"Voting is not open.\") */\n      tag_110\n      jumpi\n      mload(0x40)\n      0x08c379a000000000000000000000000000000000000000000000000000000000\n      dup2\n      mstore\n      0x04\n      add\n      tag_111\n      swap1\n      tag_56\n      jump\t// in\n    tag_111:\n      mload(0x40)\n      dup1\n      swap2\n      sub\n      swap1\n      revert\n    tag_110:\n        /* \"VotingContract.sol\":1765:1775  topicCount */\n      sload(0x02)\n        /* \"VotingContract.sol\":1754:1762  _topicId */\n      dup2\n        /* \"VotingContract.sol\":1754:1775  _topicId < topicCount */\n      lt\n        /* \"VotingContract.sol\":1746:1797  require(_topicId < topicCount, \"Invalid topic ID.\") */\n      tag_112\n      jumpi\n      mload(0x40)\n      0x08c379a000000000000000000000000000000000000000000000000000000000\n      dup2\n      mstore\n      0x04\n      add\n      tag_113\n      swap1\n      tag_59\n      jump\t// in\n    tag_113:\n      mload(0x40)\n      dup1\n      swap2\n      sub\n      swap1\n      revert\n    tag_112:\n        /* \"VotingContract.sol\":1816:1835  Topic storage topic */\n      0x00\n        /* \"VotingContract.sol\":1838:1844  topics */\n      0x01\n        /* \"VotingContract.sol\":1838:1854  topics[_topicId] */\n      0x00\n        /* \"VotingContract.sol\":1845:1853  _topicId */\n      dup4\n        /* \"VotingContract.sol\":1838:1854  topics[_topicId] */\n      dup2\n      mstore\n      0x20\n      add\n      swap1\n      dup2\n      mstore\n      0x20\n      add\n      0x00\n      keccak256\n        /* \"VotingContract.sol\":1816:1854  Topic storage topic = topics[_topicId] */\n      swap1\n      pop\n        /* \"VotingContract.sol\":1900:1901  0 */\n      0x00\n        /* \"VotingContract.sol\":1878:1883  topic */\n      dup2\n        /* \"VotingContract.sol\":1878:1889  topic.title */\n      0x00\n      add\n        /* \"VotingContract.sol\":1872:1897  bytes(topic.title).length */\n      dup1\n      sload\n      tag_114\n      swap1\n      tag_61\n      jump\t// in\n    tag_114:\n      swap1\n      pop\n        /* \"VotingContract.sol\":1872:1901  bytes(topic.title).length > 0 */\n      gt\n        /* \"VotingContract.sol\":1864:1927  require(bytes(topic.title).length > 0, \"Topic does not exist.\") */\n      tag_115\n      jumpi\n      mload(0x40)\n      0x08c379a000000000000000000000000000000000000000000000000000000000\n      dup2\n      mstore\n      0x04\n      add\n      tag_116\n      swap1\n      tag_64\n      jump\t// in\n    tag_116:\n      mload(0x40)\n      dup1\n      swap2\n      sub\n      swap1\n      revert\n    tag_115:\n        /* \"VotingContract.sol\":1959:1964  false */\n      0x00\n        /* \"VotingContract.sol\":1946:1956  votingOpen */\n      dup1\n      0x14\n        /* \"VotingContract.sol\":1946:1964  votingOpen = false */\n      0x0100\n      exp\n      dup2\n      sload\n      dup2\n      0xff\n      mul\n      not\n      and\n      swap1\n      dup4\n      iszero\n      iszero\n      mul\n      or\n      swap1\n      sstore\n      pop\n        /* \"VotingContract.sol\":1979:2001  VotingClosed(_topicId) */\n      0x8e9b46a70b3967bc9ea56ca61732c363a191fac88ae3ba011f4e030711c90117\n        /* \"VotingContract.sol\":1992:2000  _topicId */\n      dup3\n        /* \"VotingContract.sol\":1979:2001  VotingClosed(_topicId) */\n      mload(0x40)\n      tag_117\n      swap2\n      swap1\n      tag_35\n      jump\t// in\n    tag_117:\n      mload(0x40)\n      dup1\n      swap2\n      sub\n      swap1\n      log1\n        /* \"VotingContract.sol\":2020:2041  settleVotes(_topicId) */\n      tag_118\n        /* \"VotingContract.sol\":2032:2040  _topicId */\n      dup3\n        /* \"VotingContract.sol\":2020:2031  settleVotes */\n      tag_119\n        /* \"VotingContract.sol\":2020:2041  settleVotes(_topicId) */\n      jump\t// in\n    tag_118:\n        /* \"VotingContract.sol\":1684:2048  {... */\n      pop\n        /* \"VotingContract.sol\":1624:2048  function closeVoting(uint256 _topicId) external onlyManager {... */\n      pop\n      jump\t// out\n        /* \"VotingContract.sol\":316:341  uint256 public topicCount */\n    tag_51:\n      sload(0x02)\n      dup2\n      jump\t// out\n        /* \"VotingContract.sol\":2537:2979  function settleVotes(uint256 _topicId) internal {... */\n    tag_119:\n        /* \"VotingContract.sol\":2595:2614  Topic storage topic */\n      0x00\n        /* \"VotingContract.sol\":2617:2623  topics */\n      0x01\n        /* \"VotingContract.sol\":2617:2633  topics[_topicId] */\n      0x00\n        /* \"VotingContract.sol\":2624:2632  _topicId */\n      dup4\n        /* \"VotingContract.sol\":2617:2633  topics[_topicId] */\n      dup2\n      mstore\n      0x20\n      add\n      swap1\n      dup2\n      mstore\n      0x20\n      add\n      0x00\n      keccak256\n        /* \"VotingContract.sol\":2595:2633  Topic storage topic = topics[_topicId] */\n      swap1\n      pop\n        /* \"VotingContract.sol\":2643:2663  uint256 rewardAmount */\n      0x00\n        /* \"VotingContract.sol\":2666:2668  10 */\n      0x0a\n        /* \"VotingContract.sol\":2643:2668  uint256 rewardAmount = 10 */\n      swap1\n      pop\n        /* \"VotingContract.sol\":2714:2723  uint256 i */\n      0x00\n        /* \"VotingContract.sol\":2709:2973  for (uint256 i = 0; i < topicCount; i++) {... */\n    tag_121:\n        /* \"VotingContract.sol\":2733:2743  topicCount */\n      sload(0x02)\n        /* \"VotingContract.sol\":2729:2730  i */\n      dup2\n        /* \"VotingContract.sol\":2729:2743  i < topicCount */\n      lt\n        /* \"VotingContract.sol\":2709:2973  for (uint256 i = 0; i < topicCount; i++) {... */\n      iszero\n      tag_122\n      jumpi\n        /* \"VotingContract.sol\":2768:2773  topic */\n      dup3\n        /* \"VotingContract.sol\":2768:2782  topic.hasVoted */\n      0x02\n      add\n        /* \"VotingContract.sol\":2768:2791  topic.hasVoted[manager] */\n      0x00\n        /* \"VotingContract.sol\":2783:2790  manager */\n      dup1\n      0x00\n      swap1\n      sload\n      swap1\n      0x0100\n      exp\n      swap1\n      div\n      0xffffffffffffffffffffffffffffffffffffffff\n      and\n        /* \"VotingContract.sol\":2768:2791  topic.hasVoted[manager] */\n      0xffffffffffffffffffffffffffffffffffffffff\n      and\n      0xffffffffffffffffffffffffffffffffffffffff\n      and\n      dup2\n      mstore\n      0x20\n      add\n      swap1\n      dup2\n      mstore\n      0x20\n      add\n      0x00\n      keccak256\n      0x00\n      swap1\n      sload\n      swap1\n      0x0100\n      exp\n      swap1\n      div\n      0xff\n      and\n        /* \"VotingContract.sol\":2764:2963  if (topic.hasVoted[manager]) {... */\n      iszero\n      tag_124\n      jumpi\n        /* \"VotingContract.sol\":2877:2889  rewardAmount */\n      dup2\n        /* \"VotingContract.sol\":2855:2861  scores */\n      0x03\n        /* \"VotingContract.sol\":2855:2873  scores[msg.sender] */\n      0x00\n        /* \"VotingContract.sol\":2862:2872  msg.sender */\n      caller\n        /* \"VotingContract.sol\":2855:2873  scores[msg.sender] */\n      0xffffffffffffffffffffffffffffffffffffffff\n      and\n      0xffffffffffffffffffffffffffffffffffffffff\n      and\n      dup2\n      mstore\n      0x20\n      add\n      swap1\n      dup2\n      mstore\n      0x20\n      add\n      0x00\n      keccak256\n      0x00\n        /* \"VotingContract.sol\":2855:2889  scores[msg.sender] += rewardAmount */\n      dup3\n      dup3\n      sload\n      tag_125\n      swap2\n      swap1\n      tag_126\n      jump\t// in\n    tag_125:\n      swap3\n      pop\n      pop\n      dup2\n      swap1\n      sstore\n      pop\n        /* \"VotingContract.sol\":2912:2948  RewardSent(msg.sender, rewardAmount) */\n      0x6177f4110771217c72937d51f3a73915f2c714a6b98507e17eea7a186136a24a\n        /* \"VotingContract.sol\":2923:2933  msg.sender */\n      caller\n        /* \"VotingContract.sol\":2935:2947  rewardAmount */\n      dup4\n        /* \"VotingContract.sol\":2912:2948  RewardSent(msg.sender, rewardAmount) */\n      mload(0x40)\n      tag_127\n      swap3\n      swap2\n      swap1\n      tag_128\n      jump\t// in\n    tag_127:\n      mload(0x40)\n      dup1\n      swap2\n      sub\n      swap1\n      log1\n        /* \"VotingContract.sol\":2764:2963  if (topic.hasVoted[manager]) {... */\n    tag_124:\n        /* \"VotingContract.sol\":2745:2748  i++ */\n      dup1\n      dup1\n      tag_129\n      swap1\n      tag_96\n      jump\t// in\n    tag_129:\n      swap2\n      pop\n      pop\n        /* \"VotingContract.sol\":2709:2973  for (uint256 i = 0; i < topicCount; i++) {... */\n      jump(tag_121)\n    tag_122:\n      pop\n        /* \"VotingContract.sol\":2585:2979  {... */\n      pop\n      pop\n        /* \"VotingContract.sol\":2537:2979  function settleVotes(uint256 _topicId) internal {... */\n      pop\n      jump\t// out\n        /* \"#utility.yul\":88:205   */\n    tag_131:\n        /* \"#utility.yul\":197:198   */\n      0x00\n        /* \"#utility.yul\":194:195   */\n      dup1\n        /* \"#utility.yul\":187:199   */\n      revert\n        /* \"#utility.yul\":211:328   */\n    tag_132:\n        /* \"#utility.yul\":320:321   */\n      0x00\n        /* \"#utility.yul\":317:318   */\n      dup1\n        /* \"#utility.yul\":310:322   */\n      revert\n        /* \"#utility.yul\":334:411   */\n    tag_133:\n        /* \"#utility.yul\":371:378   */\n      0x00\n        /* \"#utility.yul\":400:405   */\n      dup2\n        /* \"#utility.yul\":389:405   */\n      swap1\n      pop\n        /* \"#utility.yul\":334:411   */\n      swap2\n      swap1\n      pop\n      jump\t// out\n        /* \"#utility.yul\":417:539   */\n    tag_134:\n        /* \"#utility.yul\":490:514   */\n      tag_192\n        /* \"#utility.yul\":508:513   */\n      dup2\n        /* \"#utility.yul\":490:514   */\n      tag_133\n      jump\t// in\n    tag_192:\n        /* \"#utility.yul\":483:488   */\n      dup2\n        /* \"#utility.yul\":480:515   */\n      eq\n        /* \"#utility.yul\":470:533   */\n      tag_193\n      jumpi\n        /* \"#utility.yul\":529:530   */\n      0x00\n        /* \"#utility.yul\":526:527   */\n      dup1\n        /* \"#utility.yul\":519:531   */\n      revert\n        /* \"#utility.yul\":470:533   */\n    tag_193:\n        /* \"#utility.yul\":417:539   */\n      pop\n      jump\t// out\n        /* \"#utility.yul\":545:684   */\n    tag_135:\n        /* \"#utility.yul\":591:596   */\n      0x00\n        /* \"#utility.yul\":629:635   */\n      dup2\n        /* \"#utility.yul\":616:636   */\n      calldataload\n        /* \"#utility.yul\":607:636   */\n      swap1\n      pop\n        /* \"#utility.yul\":645:678   */\n      tag_195\n        /* \"#utility.yul\":672:677   */\n      dup2\n        /* \"#utility.yul\":645:678   */\n      tag_134\n      jump\t// in\n    tag_195:\n        /* \"#utility.yul\":545:684   */\n      swap3\n      swap2\n      pop\n      pop\n      jump\t// out\n        /* \"#utility.yul\":690:1019   */\n    tag_16:\n        /* \"#utility.yul\":749:755   */\n      0x00\n        /* \"#utility.yul\":798:800   */\n      0x20\n        /* \"#utility.yul\":786:795   */\n      dup3\n        /* \"#utility.yul\":777:784   */\n      dup5\n        /* \"#utility.yul\":773:796   */\n      sub\n        /* \"#utility.yul\":769:801   */\n      slt\n        /* \"#utility.yul\":766:885   */\n      iszero\n      tag_197\n      jumpi\n        /* \"#utility.yul\":804:883   */\n      tag_198\n      tag_131\n      jump\t// in\n    tag_198:\n        /* \"#utility.yul\":766:885   */\n    tag_197:\n        /* \"#utility.yul\":924:925   */\n      0x00\n        /* \"#utility.yul\":949:1002   */\n      tag_199\n        /* \"#utility.yul\":994:1001   */\n      dup5\n        /* \"#utility.yul\":985:991   */\n      dup3\n        /* \"#utility.yul\":974:983   */\n      dup6\n        /* \"#utility.yul\":970:992   */\n      add\n        /* \"#utility.yul\":949:1002   */\n      tag_135\n      jump\t// in\n    tag_199:\n        /* \"#utility.yul\":939:1002   */\n      swap2\n      pop\n        /* \"#utility.yul\":895:1012   */\n      pop\n        /* \"#utility.yul\":690:1019   */\n      swap3\n      swap2\n      pop\n      pop\n      jump\t// out\n        /* \"#utility.yul\":1025:1124   */\n    tag_136:\n        /* \"#utility.yul\":1077:1083   */\n      0x00\n        /* \"#utility.yul\":1111:1116   */\n      dup2\n        /* \"#utility.yul\":1105:1117   */\n      mload\n        /* \"#utility.yul\":1095:1117   */\n      swap1\n      pop\n        /* \"#utility.yul\":1025:1124   */\n      swap2\n      swap1\n      pop\n      jump\t// out\n        /* \"#utility.yul\":1130:1299   */\n    tag_137:\n        /* \"#utility.yul\":1214:1225   */\n      0x00\n        /* \"#utility.yul\":1248:1254   */\n      dup3\n        /* \"#utility.yul\":1243:1246   */\n      dup3\n        /* \"#utility.yul\":1236:1255   */\n      mstore\n        /* \"#utility.yul\":1288:1292   */\n      0x20\n        /* \"#utility.yul\":1283:1286   */\n      dup3\n        /* \"#utility.yul\":1279:1293   */\n      add\n        /* \"#utility.yul\":1264:1293   */\n      swap1\n      pop\n        /* \"#utility.yul\":1130:1299   */\n      swap3\n      swap2\n      pop\n      pop\n      jump\t// out\n        /* \"#utility.yul\":1305:1551   */\n    tag_138:\n        /* \"#utility.yul\":1386:1387   */\n      0x00\n        /* \"#utility.yul\":1396:1509   */\n    tag_203:\n        /* \"#utility.yul\":1410:1416   */\n      dup4\n        /* \"#utility.yul\":1407:1408   */\n      dup2\n        /* \"#utility.yul\":1404:1417   */\n      lt\n        /* \"#utility.yul\":1396:1509   */\n      iszero\n      tag_205\n      jumpi\n        /* \"#utility.yul\":1495:1496   */\n      dup1\n        /* \"#utility.yul\":1490:1493   */\n      dup3\n        /* \"#utility.yul\":1486:1497   */\n      add\n        /* \"#utility.yul\":1480:1498   */\n      mload\n        /* \"#utility.yul\":1476:1477   */\n      dup2\n        /* \"#utility.yul\":1471:1474   */\n      dup5\n        /* \"#utility.yul\":1467:1478   */\n      add\n        /* \"#utility.yul\":1460:1499   */\n      mstore\n        /* \"#utility.yul\":1432:1434   */\n      0x20\n        /* \"#utility.yul\":1429:1430   */\n      dup2\n        /* \"#utility.yul\":1425:1435   */\n      add\n        /* \"#utility.yul\":1420:1435   */\n      swap1\n      pop\n        /* \"#utility.yul\":1396:1509   */\n      jump(tag_203)\n    tag_205:\n        /* \"#utility.yul\":1543:1544   */\n      0x00\n        /* \"#utility.yul\":1534:1540   */\n      dup5\n        /* \"#utility.yul\":1529:1532   */\n      dup5\n        /* \"#utility.yul\":1525:1541   */\n      add\n        /* \"#utility.yul\":1518:1545   */\n      mstore\n        /* \"#utility.yul\":1367:1551   */\n      pop\n        /* \"#utility.yul\":1305:1551   */\n      pop\n      pop\n      pop\n      jump\t// out\n        /* \"#utility.yul\":1557:1659   */\n    tag_139:\n        /* \"#utility.yul\":1598:1604   */\n      0x00\n        /* \"#utility.yul\":1649:1651   */\n      0x1f\n        /* \"#utility.yul\":1645:1652   */\n      not\n        /* \"#utility.yul\":1640:1642   */\n      0x1f\n        /* \"#utility.yul\":1633:1638   */\n      dup4\n        /* \"#utility.yul\":1629:1643   */\n      add\n        /* \"#utility.yul\":1625:1653   */\n      and\n        /* \"#utility.yul\":1615:1653   */\n      swap1\n      pop\n        /* \"#utility.yul\":1557:1659   */\n      swap2\n      swap1\n      pop\n      jump\t// out\n        /* \"#utility.yul\":1665:2042   */\n    tag_140:\n        /* \"#utility.yul\":1753:1756   */\n      0x00\n        /* \"#utility.yul\":1781:1820   */\n      tag_208\n        /* \"#utility.yul\":1814:1819   */\n      dup3\n        /* \"#utility.yul\":1781:1820   */\n      tag_136\n      jump\t// in\n    tag_208:\n        /* \"#utility.yul\":1836:1907   */\n      tag_209\n        /* \"#utility.yul\":1900:1906   */\n      dup2\n        /* \"#utility.yul\":1895:1898   */\n      dup6\n        /* \"#utility.yul\":1836:1907   */\n      tag_137\n      jump\t// in\n    tag_209:\n        /* \"#utility.yul\":1829:1907   */\n      swap4\n      pop\n        /* \"#utility.yul\":1916:1981   */\n      tag_210\n        /* \"#utility.yul\":1974:1980   */\n      dup2\n        /* \"#utility.yul\":1969:1972   */\n      dup6\n        /* \"#utility.yul\":1962:1966   */\n      0x20\n        /* \"#utility.yul\":1955:1960   */\n      dup7\n        /* \"#utility.yul\":1951:1967   */\n      add\n        /* \"#utility.yul\":1916:1981   */\n      tag_138\n      jump\t// in\n    tag_210:\n        /* \"#utility.yul\":2006:2035   */\n      tag_211\n        /* \"#utility.yul\":2028:2034   */\n      dup2\n        /* \"#utility.yul\":2006:2035   */\n      tag_139\n      jump\t// in\n    tag_211:\n        /* \"#utility.yul\":2001:2004   */\n      dup5\n        /* \"#utility.yul\":1997:2036   */\n      add\n        /* \"#utility.yul\":1990:2036   */\n      swap2\n      pop\n        /* \"#utility.yul\":1757:2042   */\n      pop\n        /* \"#utility.yul\":1665:2042   */\n      swap3\n      swap2\n      pop\n      pop\n      jump\t// out\n        /* \"#utility.yul\":2048:2562   */\n    tag_22:\n        /* \"#utility.yul\":2209:2213   */\n      0x00\n        /* \"#utility.yul\":2247:2249   */\n      0x40\n        /* \"#utility.yul\":2236:2245   */\n      dup3\n        /* \"#utility.yul\":2232:2250   */\n      add\n        /* \"#utility.yul\":2224:2250   */\n      swap1\n      pop\n        /* \"#utility.yul\":2296:2305   */\n      dup2\n        /* \"#utility.yul\":2290:2294   */\n      dup2\n        /* \"#utility.yul\":2286:2306   */\n      sub\n        /* \"#utility.yul\":2282:2283   */\n      0x00\n        /* \"#utility.yul\":2271:2280   */\n      dup4\n        /* \"#utility.yul\":2267:2284   */\n      add\n        /* \"#utility.yul\":2260:2307   */\n      mstore\n        /* \"#utility.yul\":2324:2402   */\n      tag_213\n        /* \"#utility.yul\":2397:2401   */\n      dup2\n        /* \"#utility.yul\":2388:2394   */\n      dup6\n        /* \"#utility.yul\":2324:2402   */\n      tag_140\n      jump\t// in\n    tag_213:\n        /* \"#utility.yul\":2316:2402   */\n      swap1\n      pop\n        /* \"#utility.yul\":2449:2458   */\n      dup2\n        /* \"#utility.yul\":2443:2447   */\n      dup2\n        /* \"#utility.yul\":2439:2459   */\n      sub\n        /* \"#utility.yul\":2434:2436   */\n      0x20\n        /* \"#utility.yul\":2423:2432   */\n      dup4\n        /* \"#utility.yul\":2419:2437   */\n      add\n        /* \"#utility.yul\":2412:2460   */\n      mstore\n        /* \"#utility.yul\":2477:2555   */\n      tag_214\n        /* \"#utility.yul\":2550:2554   */\n      dup2\n        /* \"#utility.yul\":2541:2547   */\n      dup5\n        /* \"#utility.yul\":2477:2555   */\n      tag_140\n      jump\t// in\n    tag_214:\n        /* \"#utility.yul\":2469:2555   */\n      swap1\n      pop\n        /* \"#utility.yul\":2048:2562   */\n      swap4\n      swap3\n      pop\n      pop\n      pop\n      jump\t// out\n        /* \"#utility.yul\":2568:2694   */\n    tag_141:\n        /* \"#utility.yul\":2605:2612   */\n      0x00\n        /* \"#utility.yul\":2645:2687   */\n      0xffffffffffffffffffffffffffffffffffffffff\n        /* \"#utility.yul\":2638:2643   */\n      dup3\n        /* \"#utility.yul\":2634:2688   */\n      and\n        /* \"#utility.yul\":2623:2688   */\n      swap1\n      pop\n        /* \"#utility.yul\":2568:2694   */\n      swap2\n      swap1\n      pop\n      jump\t// out\n        /* \"#utility.yul\":2700:2796   */\n    tag_142:\n        /* \"#utility.yul\":2737:2744   */\n      0x00\n        /* \"#utility.yul\":2766:2790   */\n      tag_217\n        /* \"#utility.yul\":2784:2789   */\n      dup3\n        /* \"#utility.yul\":2766:2790   */\n      tag_141\n      jump\t// in\n    tag_217:\n        /* \"#utility.yul\":2755:2790   */\n      swap1\n      pop\n        /* \"#utility.yul\":2700:2796   */\n      swap2\n      swap1\n      pop\n      jump\t// out\n        /* \"#utility.yul\":2802:2920   */\n    tag_143:\n        /* \"#utility.yul\":2889:2913   */\n      tag_219\n        /* \"#utility.yul\":2907:2912   */\n      dup2\n        /* \"#utility.yul\":2889:2913   */\n      tag_142\n      jump\t// in\n    tag_219:\n        /* \"#utility.yul\":2884:2887   */\n      dup3\n        /* \"#utility.yul\":2877:2914   */\n      mstore\n        /* \"#utility.yul\":2802:2920   */\n      pop\n      pop\n      jump\t// out\n        /* \"#utility.yul\":2926:3148   */\n    tag_29:\n        /* \"#utility.yul\":3019:3023   */\n      0x00\n        /* \"#utility.yul\":3057:3059   */\n      0x20\n        /* \"#utility.yul\":3046:3055   */\n      dup3\n        /* \"#utility.yul\":3042:3060   */\n      add\n        /* \"#utility.yul\":3034:3060   */\n      swap1\n      pop\n        /* \"#utility.yul\":3070:3141   */\n      tag_221\n        /* \"#utility.yul\":3138:3139   */\n      0x00\n        /* \"#utility.yul\":3127:3136   */\n      dup4\n        /* \"#utility.yul\":3123:3140   */\n      add\n        /* \"#utility.yul\":3114:3120   */\n      dup5\n        /* \"#utility.yul\":3070:3141   */\n      tag_143\n      jump\t// in\n    tag_221:\n        /* \"#utility.yul\":2926:3148   */\n      swap3\n      swap2\n      pop\n      pop\n      jump\t// out\n        /* \"#utility.yul\":3154:3276   */\n    tag_144:\n        /* \"#utility.yul\":3227:3251   */\n      tag_223\n        /* \"#utility.yul\":3245:3250   */\n      dup2\n        /* \"#utility.yul\":3227:3251   */\n      tag_142\n      jump\t// in\n    tag_223:\n        /* \"#utility.yul\":3220:3225   */\n      dup2\n        /* \"#utility.yul\":3217:3252   */\n      eq\n        /* \"#utility.yul\":3207:3270   */\n      tag_224\n      jumpi\n        /* \"#utility.yul\":3266:3267   */\n      0x00\n        /* \"#utility.yul\":3263:3264   */\n      dup1\n        /* \"#utility.yul\":3256:3268   */\n      revert\n        /* \"#utility.yul\":3207:3270   */\n    tag_224:\n        /* \"#utility.yul\":3154:3276   */\n      pop\n      jump\t// out\n        /* \"#utility.yul\":3282:3421   */\n    tag_145:\n        /* \"#utility.yul\":3328:3333   */\n      0x00\n        /* \"#utility.yul\":3366:3372   */\n      dup2\n        /* \"#utility.yul\":3353:3373   */\n      calldataload\n        /* \"#utility.yul\":3344:3373   */\n      swap1\n      pop\n        /* \"#utility.yul\":3382:3415   */\n      tag_226\n        /* \"#utility.yul\":3409:3414   */\n      dup2\n        /* \"#utility.yul\":3382:3415   */\n      tag_144\n      jump\t// in\n    tag_226:\n        /* \"#utility.yul\":3282:3421   */\n      swap3\n      swap2\n      pop\n      pop\n      jump\t// out\n        /* \"#utility.yul\":3427:3756   */\n    tag_32:\n        /* \"#utility.yul\":3486:3492   */\n      0x00\n        /* \"#utility.yul\":3535:3537   */\n      0x20\n        /* \"#utility.yul\":3523:3532   */\n      dup3\n        /* \"#utility.yul\":3514:3521   */\n      dup5\n        /* \"#utility.yul\":3510:3533   */\n      sub\n        /* \"#utility.yul\":3506:3538   */\n      slt\n        /* \"#utility.yul\":3503:3622   */\n      iszero\n      tag_228\n      jumpi\n        /* \"#utility.yul\":3541:3620   */\n      tag_229\n      tag_131\n      jump\t// in\n    tag_229:\n        /* \"#utility.yul\":3503:3622   */\n    tag_228:\n        /* \"#utility.yul\":3661:3662   */\n      0x00\n        /* \"#utility.yul\":3686:3739   */\n      tag_230\n        /* \"#utility.yul\":3731:3738   */\n      dup5\n        /* \"#utility.yul\":3722:3728   */\n      dup3\n        /* \"#utility.yul\":3711:3720   */\n      dup6\n        /* \"#utility.yul\":3707:3729   */\n      add\n        /* \"#utility.yul\":3686:3739   */\n      tag_145\n      jump\t// in\n    tag_230:\n        /* \"#utility.yul\":3676:3739   */\n      swap2\n      pop\n        /* \"#utility.yul\":3632:3749   */\n      pop\n        /* \"#utility.yul\":3427:3756   */\n      swap3\n      swap2\n      pop\n      pop\n      jump\t// out\n        /* \"#utility.yul\":3762:3880   */\n    tag_146:\n        /* \"#utility.yul\":3849:3873   */\n      tag_232\n        /* \"#utility.yul\":3867:3872   */\n      dup2\n        /* \"#utility.yul\":3849:3873   */\n      tag_133\n      jump\t// in\n    tag_232:\n        /* \"#utility.yul\":3844:3847   */\n      dup3\n        /* \"#utility.yul\":3837:3874   */\n      mstore\n        /* \"#utility.yul\":3762:3880   */\n      pop\n      pop\n      jump\t// out\n        /* \"#utility.yul\":3886:4108   */\n    tag_35:\n        /* \"#utility.yul\":3979:3983   */\n      0x00\n        /* \"#utility.yul\":4017:4019   */\n      0x20\n        /* \"#utility.yul\":4006:4015   */\n      dup3\n        /* \"#utility.yul\":4002:4020   */\n      add\n        /* \"#utility.yul\":3994:4020   */\n      swap1\n      pop\n        /* \"#utility.yul\":4030:4101   */\n      tag_234\n        /* \"#utility.yul\":4098:4099   */\n      0x00\n        /* \"#utility.yul\":4087:4096   */\n      dup4\n        /* \"#utility.yul\":4083:4100   */\n      add\n        /* \"#utility.yul\":4074:4080   */\n      dup5\n        /* \"#utility.yul\":4030:4101   */\n      tag_146\n      jump\t// in\n    tag_234:\n        /* \"#utility.yul\":3886:4108   */\n      swap3\n      swap2\n      pop\n      pop\n      jump\t// out\n        /* \"#utility.yul\":4114:4204   */\n    tag_147:\n        /* \"#utility.yul\":4148:4155   */\n      0x00\n        /* \"#utility.yul\":4191:4196   */\n      dup2\n        /* \"#utility.yul\":4184:4197   */\n      iszero\n        /* \"#utility.yul\":4177:4198   */\n      iszero\n        /* \"#utility.yul\":4166:4198   */\n      swap1\n      pop\n        /* \"#utility.yul\":4114:4204   */\n      swap2\n      swap1\n      pop\n      jump\t// out\n        /* \"#utility.yul\":4210:4319   */\n    tag_148:\n        /* \"#utility.yul\":4291:4312   */\n      tag_237\n        /* \"#utility.yul\":4306:4311   */\n      dup2\n        /* \"#utility.yul\":4291:4312   */\n      tag_147\n      jump\t// in\n    tag_237:\n        /* \"#utility.yul\":4286:4289   */\n      dup3\n        /* \"#utility.yul\":4279:4313   */\n      mstore\n        /* \"#utility.yul\":4210:4319   */\n      pop\n      pop\n      jump\t// out\n        /* \"#utility.yul\":4325:4535   */\n    tag_39:\n        /* \"#utility.yul\":4412:4416   */\n      0x00\n        /* \"#utility.yul\":4450:4452   */\n      0x20\n        /* \"#utility.yul\":4439:4448   */\n      dup3\n        /* \"#utility.yul\":4435:4453   */\n      add\n        /* \"#utility.yul\":4427:4453   */\n      swap1\n      pop\n        /* \"#utility.yul\":4463:4528   */\n      tag_239\n        /* \"#utility.yul\":4525:4526   */\n      0x00\n        /* \"#utility.yul\":4514:4523   */\n      dup4\n        /* \"#utility.yul\":4510:4527   */\n      add\n        /* \"#utility.yul\":4501:4507   */\n      dup5\n        /* \"#utility.yul\":4463:4528   */\n      tag_148\n      jump\t// in\n    tag_239:\n        /* \"#utility.yul\":4325:4535   */\n      swap3\n      swap2\n      pop\n      pop\n      jump\t// out\n        /* \"#utility.yul\":4541:4658   */\n    tag_149:\n        /* \"#utility.yul\":4650:4651   */\n      0x00\n        /* \"#utility.yul\":4647:4648   */\n      dup1\n        /* \"#utility.yul\":4640:4652   */\n      revert\n        /* \"#utility.yul\":4664:4781   */\n    tag_150:\n        /* \"#utility.yul\":4773:4774   */\n      0x00\n        /* \"#utility.yul\":4770:4771   */\n      dup1\n        /* \"#utility.yul\":4763:4775   */\n      revert\n        /* \"#utility.yul\":4787:4904   */\n    tag_151:\n        /* \"#utility.yul\":4896:4897   */\n      0x00\n        /* \"#utility.yul\":4893:4894   */\n      dup1\n        /* \"#utility.yul\":4886:4898   */\n      revert\n        /* \"#utility.yul\":4924:5477   */\n    tag_152:\n        /* \"#utility.yul\":4982:4990   */\n      0x00\n        /* \"#utility.yul\":4992:4998   */\n      dup1\n        /* \"#utility.yul\":5042:5045   */\n      dup4\n        /* \"#utility.yul\":5035:5039   */\n      0x1f\n        /* \"#utility.yul\":5027:5033   */\n      dup5\n        /* \"#utility.yul\":5023:5040   */\n      add\n        /* \"#utility.yul\":5019:5046   */\n      slt\n        /* \"#utility.yul\":5009:5131   */\n      tag_244\n      jumpi\n        /* \"#utility.yul\":5050:5129   */\n      tag_245\n      tag_149\n      jump\t// in\n    tag_245:\n        /* \"#utility.yul\":5009:5131   */\n    tag_244:\n        /* \"#utility.yul\":5163:5169   */\n      dup3\n        /* \"#utility.yul\":5150:5170   */\n      calldataload\n        /* \"#utility.yul\":5140:5170   */\n      swap1\n      pop\n        /* \"#utility.yul\":5193:5211   */\n      0xffffffffffffffff\n        /* \"#utility.yul\":5185:5191   */\n      dup2\n        /* \"#utility.yul\":5182:5212   */\n      gt\n        /* \"#utility.yul\":5179:5296   */\n      iszero\n      tag_246\n      jumpi\n        /* \"#utility.yul\":5215:5294   */\n      tag_247\n      tag_150\n      jump\t// in\n    tag_247:\n        /* \"#utility.yul\":5179:5296   */\n    tag_246:\n        /* \"#utility.yul\":5329:5333   */\n      0x20\n        /* \"#utility.yul\":5321:5327   */\n      dup4\n        /* \"#utility.yul\":5317:5334   */\n      add\n        /* \"#utility.yul\":5305:5334   */\n      swap2\n      pop\n        /* \"#utility.yul\":5383:5386   */\n      dup4\n        /* \"#utility.yul\":5375:5379   */\n      0x01\n        /* \"#utility.yul\":5367:5373   */\n      dup3\n        /* \"#utility.yul\":5363:5380   */\n      mul\n        /* \"#utility.yul\":5353:5361   */\n      dup4\n        /* \"#utility.yul\":5349:5381   */\n      add\n        /* \"#utility.yul\":5346:5387   */\n      gt\n        /* \"#utility.yul\":5343:5471   */\n      iszero\n      tag_248\n      jumpi\n        /* \"#utility.yul\":5390:5469   */\n      tag_249\n      tag_151\n      jump\t// in\n    tag_249:\n        /* \"#utility.yul\":5343:5471   */\n    tag_248:\n        /* \"#utility.yul\":4924:5477   */\n      swap3\n      pop\n      swap3\n      swap1\n      pop\n      jump\t// out\n        /* \"#utility.yul\":5483:6357   */\n    tag_42:\n        /* \"#utility.yul\":5575:5581   */\n      0x00\n        /* \"#utility.yul\":5583:5589   */\n      dup1\n        /* \"#utility.yul\":5591:5597   */\n      0x00\n        /* \"#utility.yul\":5599:5605   */\n      dup1\n        /* \"#utility.yul\":5648:5650   */\n      0x40\n        /* \"#utility.yul\":5636:5645   */\n      dup6\n        /* \"#utility.yul\":5627:5634   */\n      dup8\n        /* \"#utility.yul\":5623:5646   */\n      sub\n        /* \"#utility.yul\":5619:5651   */\n      slt\n        /* \"#utility.yul\":5616:5735   */\n      iszero\n      tag_251\n      jumpi\n        /* \"#utility.yul\":5654:5733   */\n      tag_252\n      tag_131\n      jump\t// in\n    tag_252:\n        /* \"#utility.yul\":5616:5735   */\n    tag_251:\n        /* \"#utility.yul\":5802:5803   */\n      0x00\n        /* \"#utility.yul\":5791:5800   */\n      dup6\n        /* \"#utility.yul\":5787:5804   */\n      add\n        /* \"#utility.yul\":5774:5805   */\n      calldataload\n        /* \"#utility.yul\":5832:5850   */\n      0xffffffffffffffff\n        /* \"#utility.yul\":5824:5830   */\n      dup2\n        /* \"#utility.yul\":5821:5851   */\n      gt\n        /* \"#utility.yul\":5818:5935   */\n      iszero\n      tag_253\n      jumpi\n        /* \"#utility.yul\":5854:5933   */\n      tag_254\n      tag_132\n      jump\t// in\n    tag_254:\n        /* \"#utility.yul\":5818:5935   */\n    tag_253:\n        /* \"#utility.yul\":5967:6032   */\n      tag_255\n        /* \"#utility.yul\":6024:6031   */\n      dup8\n        /* \"#utility.yul\":6015:6021   */\n      dup3\n        /* \"#utility.yul\":6004:6013   */\n      dup9\n        /* \"#utility.yul\":6000:6022   */\n      add\n        /* \"#utility.yul\":5967:6032   */\n      tag_152\n      jump\t// in\n    tag_255:\n        /* \"#utility.yul\":5949:6032   */\n      swap5\n      pop\n      swap5\n      pop\n        /* \"#utility.yul\":5745:6042   */\n      pop\n        /* \"#utility.yul\":6109:6111   */\n      0x20\n        /* \"#utility.yul\":6098:6107   */\n      dup6\n        /* \"#utility.yul\":6094:6112   */\n      add\n        /* \"#utility.yul\":6081:6113   */\n      calldataload\n        /* \"#utility.yul\":6140:6158   */\n      0xffffffffffffffff\n        /* \"#utility.yul\":6132:6138   */\n      dup2\n        /* \"#utility.yul\":6129:6159   */\n      gt\n        /* \"#utility.yul\":6126:6243   */\n      iszero\n      tag_256\n      jumpi\n        /* \"#utility.yul\":6162:6241   */\n      tag_257\n      tag_132\n      jump\t// in\n    tag_257:\n        /* \"#utility.yul\":6126:6243   */\n    tag_256:\n        /* \"#utility.yul\":6275:6340   */\n      tag_258\n        /* \"#utility.yul\":6332:6339   */\n      dup8\n        /* \"#utility.yul\":6323:6329   */\n      dup3\n        /* \"#utility.yul\":6312:6321   */\n      dup9\n        /* \"#utility.yul\":6308:6330   */\n      add\n        /* \"#utility.yul\":6275:6340   */\n      tag_152\n      jump\t// in\n    tag_258:\n        /* \"#utility.yul\":6257:6340   */\n      swap3\n      pop\n      swap3\n      pop\n        /* \"#utility.yul\":6052:6350   */\n      pop\n        /* \"#utility.yul\":5483:6357   */\n      swap3\n      swap6\n      swap2\n      swap5\n      pop\n      swap3\n      pop\n      jump\t// out\n        /* \"#utility.yul\":6363:6532   */\n    tag_153:\n        /* \"#utility.yul\":6503:6524   */\n      0x566f74696e67206973206e6f74206f70656e2e00000000000000000000000000\n        /* \"#utility.yul\":6499:6500   */\n      0x00\n        /* \"#utility.yul\":6491:6497   */\n      dup3\n        /* \"#utility.yul\":6487:6501   */\n      add\n        /* \"#utility.yul\":6480:6525   */\n      mstore\n        /* \"#utility.yul\":6363:6532   */\n      pop\n      jump\t// out\n        /* \"#utility.yul\":6538:6904   */\n    tag_154:\n        /* \"#utility.yul\":6680:6683   */\n      0x00\n        /* \"#utility.yul\":6701:6768   */\n      tag_261\n        /* \"#utility.yul\":6765:6767   */\n      0x13\n        /* \"#utility.yul\":6760:6763   */\n      dup4\n        /* \"#utility.yul\":6701:6768   */\n      tag_137\n      jump\t// in\n    tag_261:\n        /* \"#utility.yul\":6694:6768   */\n      swap2\n      pop\n        /* \"#utility.yul\":6777:6870   */\n      tag_262\n        /* \"#utility.yul\":6866:6869   */\n      dup3\n        /* \"#utility.yul\":6777:6870   */\n      tag_153\n      jump\t// in\n    tag_262:\n        /* \"#utility.yul\":6895:6897   */\n      0x20\n        /* \"#utility.yul\":6890:6893   */\n      dup3\n        /* \"#utility.yul\":6886:6898   */\n      add\n        /* \"#utility.yul\":6879:6898   */\n      swap1\n      pop\n        /* \"#utility.yul\":6538:6904   */\n      swap2\n      swap1\n      pop\n      jump\t// out\n        /* \"#utility.yul\":6910:7329   */\n    tag_56:\n        /* \"#utility.yul\":7076:7080   */\n      0x00\n        /* \"#utility.yul\":7114:7116   */\n      0x20\n        /* \"#utility.yul\":7103:7112   */\n      dup3\n        /* \"#utility.yul\":7099:7117   */\n      add\n        /* \"#utility.yul\":7091:7117   */\n      swap1\n      pop\n        /* \"#utility.yul\":7163:7172   */\n      dup2\n        /* \"#utility.yul\":7157:7161   */\n      dup2\n        /* \"#utility.yul\":7153:7173   */\n      sub\n        /* \"#utility.yul\":7149:7150   */\n      0x00\n        /* \"#utility.yul\":7138:7147   */\n      dup4\n        /* \"#utility.yul\":7134:7151   */\n      add\n        /* \"#utility.yul\":7127:7174   */\n      mstore\n        /* \"#utility.yul\":7191:7322   */\n      tag_264\n        /* \"#utility.yul\":7317:7321   */\n      dup2\n        /* \"#utility.yul\":7191:7322   */\n      tag_154\n      jump\t// in\n    tag_264:\n        /* \"#utility.yul\":7183:7322   */\n      swap1\n      pop\n        /* \"#utility.yul\":6910:7329   */\n      swap2\n      swap1\n      pop\n      jump\t// out\n        /* \"#utility.yul\":7335:7502   */\n    tag_155:\n        /* \"#utility.yul\":7475:7494   */\n      0x496e76616c696420746f7069632049442e000000000000000000000000000000\n        /* \"#utility.yul\":7471:7472   */\n      0x00\n        /* \"#utility.yul\":7463:7469   */\n      dup3\n        /* \"#utility.yul\":7459:7473   */\n      add\n        /* \"#utility.yul\":7452:7495   */\n      mstore\n        /* \"#utility.yul\":7335:7502   */\n      pop\n      jump\t// out\n        /* \"#utility.yul\":7508:7874   */\n    tag_156:\n        /* \"#utility.yul\":7650:7653   */\n      0x00\n        /* \"#utility.yul\":7671:7738   */\n      tag_267\n        /* \"#utility.yul\":7735:7737   */\n      0x11\n        /* \"#utility.yul\":7730:7733   */\n      dup4\n        /* \"#utility.yul\":7671:7738   */\n      tag_137\n      jump\t// in\n    tag_267:\n        /* \"#utility.yul\":7664:7738   */\n      swap2\n      pop\n        /* \"#utility.yul\":7747:7840   */\n      tag_268\n        /* \"#utility.yul\":7836:7839   */\n      dup3\n        /* \"#utility.yul\":7747:7840   */\n      tag_155\n      jump\t// in\n    tag_268:\n        /* \"#utility.yul\":7865:7867   */\n      0x20\n        /* \"#utility.yul\":7860:7863   */\n      dup3\n        /* \"#utility.yul\":7856:7868   */\n      add\n        /* \"#utility.yul\":7849:7868   */\n      swap1\n      pop\n        /* \"#utility.yul\":7508:7874   */\n      swap2\n      swap1\n      pop\n      jump\t// out\n        /* \"#utility.yul\":7880:8299   */\n    tag_59:\n        /* \"#utility.yul\":8046:8050   */\n      0x00\n        /* \"#utility.yul\":8084:8086   */\n      0x20\n        /* \"#utility.yul\":8073:8082   */\n      dup3\n        /* \"#utility.yul\":8069:8087   */\n      add\n        /* \"#utility.yul\":8061:8087   */\n      swap1\n      pop\n        /* \"#utility.yul\":8133:8142   */\n      dup2\n        /* \"#utility.yul\":8127:8131   */\n      dup2\n        /* \"#utility.yul\":8123:8143   */\n      sub\n        /* \"#utility.yul\":8119:8120   */\n      0x00\n        /* \"#utility.yul\":8108:8117   */\n      dup4\n        /* \"#utility.yul\":8104:8121   */\n      add\n        /* \"#utility.yul\":8097:8144   */\n      mstore\n        /* \"#utility.yul\":8161:8292   */\n      tag_270\n        /* \"#utility.yul\":8287:8291   */\n      dup2\n        /* \"#utility.yul\":8161:8292   */\n      tag_156\n      jump\t// in\n    tag_270:\n        /* \"#utility.yul\":8153:8292   */\n      swap1\n      pop\n        /* \"#utility.yul\":7880:8299   */\n      swap2\n      swap1\n      pop\n      jump\t// out\n        /* \"#utility.yul\":8305:8485   */\n    tag_157:\n        /* \"#utility.yul\":8353:8430   */\n      0x4e487b7100000000000000000000000000000000000000000000000000000000\n        /* \"#utility.yul\":8350:8351   */\n      0x00\n        /* \"#utility.yul\":8343:8431   */\n      mstore\n        /* \"#utility.yul\":8450:8454   */\n      0x22\n        /* \"#utility.yul\":8447:8448   */\n      0x04\n        /* \"#utility.yul\":8440:8455   */\n      mstore\n        /* \"#utility.yul\":8474:8478   */\n      0x24\n        /* \"#utility.yul\":8471:8472   */\n      0x00\n        /* \"#utility.yul\":8464:8479   */\n      revert\n        /* \"#utility.yul\":8491:8811   */\n    tag_61:\n        /* \"#utility.yul\":8535:8541   */\n      0x00\n        /* \"#utility.yul\":8572:8573   */\n      0x02\n        /* \"#utility.yul\":8566:8570   */\n      dup3\n        /* \"#utility.yul\":8562:8574   */\n      div\n        /* \"#utility.yul\":8552:8574   */\n      swap1\n      pop\n        /* \"#utility.yul\":8619:8620   */\n      0x01\n        /* \"#utility.yul\":8613:8617   */\n      dup3\n        /* \"#utility.yul\":8609:8621   */\n      and\n        /* \"#utility.yul\":8640:8658   */\n      dup1\n        /* \"#utility.yul\":8630:8711   */\n      tag_273\n      jumpi\n        /* \"#utility.yul\":8696:8700   */\n      0x7f\n        /* \"#utility.yul\":8688:8694   */\n      dup3\n        /* \"#utility.yul\":8684:8701   */\n      and\n        /* \"#utility.yul\":8674:8701   */\n      swap2\n      pop\n        /* \"#utility.yul\":8630:8711   */\n    tag_273:\n        /* \"#utility.yul\":8758:8760   */\n      0x20\n        /* \"#utility.yul\":8750:8756   */\n      dup3\n        /* \"#utility.yul\":8747:8761   */\n      lt\n        /* \"#utility.yul\":8727:8745   */\n      dup2\n        /* \"#utility.yul\":8724:8762   */\n      sub\n        /* \"#utility.yul\":8721:8805   */\n      tag_274\n      jumpi\n        /* \"#utility.yul\":8777:8795   */\n      tag_275\n      tag_157\n      jump\t// in\n    tag_275:\n        /* \"#utility.yul\":8721:8805   */\n    tag_274:\n        /* \"#utility.yul\":8542:8811   */\n      pop\n        /* \"#utility.yul\":8491:8811   */\n      swap2\n      swap1\n      pop\n      jump\t// out\n        /* \"#utility.yul\":8817:8988   */\n    tag_158:\n        /* \"#utility.yul\":8957:8980   */\n      0x546f70696320646f6573206e6f742065786973742e0000000000000000000000\n        /* \"#utility.yul\":8953:8954   */\n      0x00\n        /* \"#utility.yul\":8945:8951   */\n      dup3\n        /* \"#utility.yul\":8941:8955   */\n      add\n        /* \"#utility.yul\":8934:8981   */\n      mstore\n        /* \"#utility.yul\":8817:8988   */\n      pop\n      jump\t// out\n        /* \"#utility.yul\":8994:9360   */\n    tag_159:\n        /* \"#utility.yul\":9136:9139   */\n      0x00\n        /* \"#utility.yul\":9157:9224   */\n      tag_278\n        /* \"#utility.yul\":9221:9223   */\n      0x15\n        /* \"#utility.yul\":9216:9219   */\n      dup4\n        /* \"#utility.yul\":9157:9224   */\n      tag_137\n      jump\t// in\n    tag_278:\n        /* \"#utility.yul\":9150:9224   */\n      swap2\n      pop\n        /* \"#utility.yul\":9233:9326   */\n      tag_279\n        /* \"#utility.yul\":9322:9325   */\n      dup3\n        /* \"#utility.yul\":9233:9326   */\n      tag_158\n      jump\t// in\n    tag_279:\n        /* \"#utility.yul\":9351:9353   */\n      0x20\n        /* \"#utility.yul\":9346:9349   */\n      dup3\n        /* \"#utility.yul\":9342:9354   */\n      add\n        /* \"#utility.yul\":9335:9354   */\n      swap1\n      pop\n        /* \"#utility.yul\":8994:9360   */\n      swap2\n      swap1\n      pop\n      jump\t// out\n        /* \"#utility.yul\":9366:9785   */\n    tag_64:\n        /* \"#utility.yul\":9532:9536   */\n      0x00\n        /* \"#utility.yul\":9570:9572   */\n      0x20\n        /* \"#utility.yul\":9559:9568   */\n      dup3\n        /* \"#utility.yul\":9555:9573   */\n      add\n        /* \"#utility.yul\":9547:9573   */\n      swap1\n      pop\n        /* \"#utility.yul\":9619:9628   */\n      dup2\n        /* \"#utility.yul\":9613:9617   */\n      dup2\n        /* \"#utility.yul\":9609:9629   */\n      sub\n        /* \"#utility.yul\":9605:9606   */\n      0x00\n        /* \"#utility.yul\":9594:9603   */\n      dup4\n        /* \"#utility.yul\":9590:9607   */\n      add\n        /* \"#utility.yul\":9583:9630   */\n      mstore\n        /* \"#utility.yul\":9647:9778   */\n      tag_281\n        /* \"#utility.yul\":9773:9777   */\n      dup2\n        /* \"#utility.yul\":9647:9778   */\n      tag_159\n      jump\t// in\n    tag_281:\n        /* \"#utility.yul\":9639:9778   */\n      swap1\n      pop\n        /* \"#utility.yul\":9366:9785   */\n      swap2\n      swap1\n      pop\n      jump\t// out\n        /* \"#utility.yul\":9791:9970   */\n    tag_160:\n        /* \"#utility.yul\":9931:9962   */\n      0x416c726561647920766f74656420666f72207468697320746f7069632e000000\n        /* \"#utility.yul\":9927:9928   */\n      0x00\n        /* \"#utility.yul\":9919:9925   */\n      dup3\n        /* \"#utility.yul\":9915:9929   */\n      add\n        /* \"#utility.yul\":9908:9963   */\n      mstore\n        /* \"#utility.yul\":9791:9970   */\n      pop\n      jump\t// out\n        /* \"#utility.yul\":9976:10342   */\n    tag_161:\n        /* \"#utility.yul\":10118:10121   */\n      0x00\n        /* \"#utility.yul\":10139:10206   */\n      tag_284\n        /* \"#utility.yul\":10203:10205   */\n      0x1d\n        /* \"#utility.yul\":10198:10201   */\n      dup4\n        /* \"#utility.yul\":10139:10206   */\n      tag_137\n      jump\t// in\n    tag_284:\n        /* \"#utility.yul\":10132:10206   */\n      swap2\n      pop\n        /* \"#utility.yul\":10215:10308   */\n      tag_285\n        /* \"#utility.yul\":10304:10307   */\n      dup3\n        /* \"#utility.yul\":10215:10308   */\n      tag_160\n      jump\t// in\n    tag_285:\n        /* \"#utility.yul\":10333:10335   */\n      0x20\n        /* \"#utility.yul\":10328:10331   */\n      dup3\n        /* \"#utility.yul\":10324:10336   */\n      add\n        /* \"#utility.yul\":10317:10336   */\n      swap1\n      pop\n        /* \"#utility.yul\":9976:10342   */\n      swap2\n      swap1\n      pop\n      jump\t// out\n        /* \"#utility.yul\":10348:10767   */\n    tag_67:\n        /* \"#utility.yul\":10514:10518   */\n      0x00\n        /* \"#utility.yul\":10552:10554   */\n      0x20\n        /* \"#utility.yul\":10541:10550   */\n      dup3\n        /* \"#utility.yul\":10537:10555   */\n      add\n        /* \"#utility.yul\":10529:10555   */\n      swap1\n      pop\n        /* \"#utility.yul\":10601:10610   */\n      dup2\n        /* \"#utility.yul\":10595:10599   */\n      dup2\n        /* \"#utility.yul\":10591:10611   */\n      sub\n        /* \"#utility.yul\":10587:10588   */\n      0x00\n        /* \"#utility.yul\":10576:10585   */\n      dup4\n        /* \"#utility.yul\":10572:10589   */\n      add\n        /* \"#utility.yul\":10565:10612   */\n      mstore\n        /* \"#utility.yul\":10629:10760   */\n      tag_287\n        /* \"#utility.yul\":10755:10759   */\n      dup2\n        /* \"#utility.yul\":10629:10760   */\n      tag_161\n      jump\t// in\n    tag_287:\n        /* \"#utility.yul\":10621:10760   */\n      swap1\n      pop\n        /* \"#utility.yul\":10348:10767   */\n      swap2\n      swap1\n      pop\n      jump\t// out\n        /* \"#utility.yul\":10773:11105   */\n    tag_69:\n        /* \"#utility.yul\":10894:10898   */\n      0x00\n        /* \"#utility.yul\":10932:10934   */\n      0x40\n        /* \"#utility.yul\":10921:10930   */\n      dup3\n        /* \"#utility.yul\":10917:10935   */\n      add\n        /* \"#utility.yul\":10909:10935   */\n      swap1\n      pop\n        /* \"#utility.yul\":10945:11016   */\n      tag_289\n        /* \"#utility.yul\":11013:11014   */\n      0x00\n        /* \"#utility.yul\":11002:11011   */\n      dup4\n        /* \"#utility.yul\":10998:11015   */\n      add\n        /* \"#utility.yul\":10989:10995   */\n      dup6\n        /* \"#utility.yul\":10945:11016   */\n      tag_146\n      jump\t// in\n    tag_289:\n        /* \"#utility.yul\":11026:11098   */\n      tag_290\n        /* \"#utility.yul\":11094:11096   */\n      0x20\n        /* \"#utility.yul\":11083:11092   */\n      dup4\n        /* \"#utility.yul\":11079:11097   */\n      add\n        /* \"#utility.yul\":11070:11076   */\n      dup5\n        /* \"#utility.yul\":11026:11098   */\n      tag_143\n      jump\t// in\n    tag_290:\n        /* \"#utility.yul\":10773:11105   */\n      swap4\n      swap3\n      pop\n      pop\n      pop\n      jump\t// out\n        /* \"#utility.yul\":11111:11335   */\n    tag_162:\n        /* \"#utility.yul\":11251:11285   */\n      0x4f6e6c79206d616e616765722063616e20706572666f726d2074686973206163\n        /* \"#utility.yul\":11247:11248   */\n      0x00\n        /* \"#utility.yul\":11239:11245   */\n      dup3\n        /* \"#utility.yul\":11235:11249   */\n      add\n        /* \"#utility.yul\":11228:11286   */\n      mstore\n        /* \"#utility.yul\":11320:11327   */\n      0x74696f6e2e000000000000000000000000000000000000000000000000000000\n        /* \"#utility.yul\":11315:11317   */\n      0x20\n        /* \"#utility.yul\":11307:11313   */\n      dup3\n        /* \"#utility.yul\":11303:11318   */\n      add\n        /* \"#utility.yul\":11296:11328   */\n      mstore\n        /* \"#utility.yul\":11111:11335   */\n      pop\n      jump\t// out\n        /* \"#utility.yul\":11341:11707   */\n    tag_163:\n        /* \"#utility.yul\":11483:11486   */\n      0x00\n        /* \"#utility.yul\":11504:11571   */\n      tag_293\n        /* \"#utility.yul\":11568:11570   */\n      0x25\n        /* \"#utility.yul\":11563:11566   */\n      dup4\n        /* \"#utility.yul\":11504:11571   */\n      tag_137\n      jump\t// in\n    tag_293:\n        /* \"#utility.yul\":11497:11571   */\n      swap2\n      pop\n        /* \"#utility.yul\":11580:11673   */\n      tag_294\n        /* \"#utility.yul\":11669:11672   */\n      dup3\n        /* \"#utility.yul\":11580:11673   */\n      tag_162\n      jump\t// in\n    tag_294:\n        /* \"#utility.yul\":11698:11700   */\n      0x40\n        /* \"#utility.yul\":11693:11696   */\n      dup3\n        /* \"#utility.yul\":11689:11701   */\n      add\n        /* \"#utility.yul\":11682:11701   */\n      swap1\n      pop\n        /* \"#utility.yul\":11341:11707   */\n      swap2\n      swap1\n      pop\n      jump\t// out\n        /* \"#utility.yul\":11713:12132   */\n    tag_83:\n        /* \"#utility.yul\":11879:11883   */\n      0x00\n        /* \"#utility.yul\":11917:11919   */\n      0x20\n        /* \"#utility.yul\":11906:11915   */\n      dup3\n        /* \"#utility.yul\":11902:11920   */\n      add\n        /* \"#utility.yul\":11894:11920   */\n      swap1\n      pop\n        /* \"#utility.yul\":11966:11975   */\n      dup2\n        /* \"#utility.yul\":11960:11964   */\n      dup2\n        /* \"#utility.yul\":11956:11976   */\n      sub\n        /* \"#utility.yul\":11952:11953   */\n      0x00\n        /* \"#utility.yul\":11941:11950   */\n      dup4\n        /* \"#utility.yul\":11937:11954   */\n      add\n        /* \"#utility.yul\":11930:11977   */\n      mstore\n        /* \"#utility.yul\":11994:12125   */\n      tag_296\n        /* \"#utility.yul\":12120:12124   */\n      dup2\n        /* \"#utility.yul\":11994:12125   */\n      tag_163\n      jump\t// in\n    tag_296:\n        /* \"#utility.yul\":11986:12125   */\n      swap1\n      pop\n        /* \"#utility.yul\":11713:12132   */\n      swap2\n      swap1\n      pop\n      jump\t// out\n        /* \"#utility.yul\":12138:12311   */\n    tag_164:\n        /* \"#utility.yul\":12278:12303   */\n      0x566f74696e6720697320616c7265616479206f70656e2e000000000000000000\n        /* \"#utility.yul\":12274:12275   */\n      0x00\n        /* \"#utility.yul\":12266:12272   */\n      dup3\n        /* \"#utility.yul\":12262:12276   */\n      add\n        /* \"#utility.yul\":12255:12304   */\n      mstore\n        /* \"#utility.yul\":12138:12311   */\n      pop\n      jump\t// out\n        /* \"#utility.yul\":12317:12683   */\n    tag_165:\n        /* \"#utility.yul\":12459:12462   */\n      0x00\n        /* \"#utility.yul\":12480:12547   */\n      tag_299\n        /* \"#utility.yul\":12544:12546   */\n      0x17\n        /* \"#utility.yul\":12539:12542   */\n      dup4\n        /* \"#utility.yul\":12480:12547   */\n      tag_137\n      jump\t// in\n    tag_299:\n        /* \"#utility.yul\":12473:12547   */\n      swap2\n      pop\n        /* \"#utility.yul\":12556:12649   */\n      tag_300\n        /* \"#utility.yul\":12645:12648   */\n      dup3\n        /* \"#utility.yul\":12556:12649   */\n      tag_164\n      jump\t// in\n    tag_300:\n        /* \"#utility.yul\":12674:12676   */\n      0x20\n        /* \"#utility.yul\":12669:12672   */\n      dup3\n        /* \"#utility.yul\":12665:12677   */\n      add\n        /* \"#utility.yul\":12658:12677   */\n      swap1\n      pop\n        /* \"#utility.yul\":12317:12683   */\n      swap2\n      swap1\n      pop\n      jump\t// out\n        /* \"#utility.yul\":12689:13108   */\n    tag_87:\n        /* \"#utility.yul\":12855:12859   */\n      0x00\n        /* \"#utility.yul\":12893:12895   */\n      0x20\n        /* \"#utility.yul\":12882:12891   */\n      dup3\n        /* \"#utility.yul\":12878:12896   */\n      add\n        /* \"#utility.yul\":12870:12896   */\n      swap1\n      pop\n        /* \"#utility.yul\":12942:12951   */\n      dup2\n        /* \"#utility.yul\":12936:12940   */\n      dup2\n        /* \"#utility.yul\":12932:12952   */\n      sub\n        /* \"#utility.yul\":12928:12929   */\n      0x00\n        /* \"#utility.yul\":12917:12926   */\n      dup4\n        /* \"#utility.yul\":12913:12930   */\n      add\n        /* \"#utility.yul\":12906:12953   */\n      mstore\n        /* \"#utility.yul\":12970:13101   */\n      tag_302\n        /* \"#utility.yul\":13096:13100   */\n      dup2\n        /* \"#utility.yul\":12970:13101   */\n      tag_165\n      jump\t// in\n    tag_302:\n        /* \"#utility.yul\":12962:13101   */\n      swap1\n      pop\n        /* \"#utility.yul\":12689:13108   */\n      swap2\n      swap1\n      pop\n      jump\t// out\n        /* \"#utility.yul\":13114:13294   */\n    tag_166:\n        /* \"#utility.yul\":13162:13239   */\n      0x4e487b7100000000000000000000000000000000000000000000000000000000\n        /* \"#utility.yul\":13159:13160   */\n      0x00\n        /* \"#utility.yul\":13152:13240   */\n      mstore\n        /* \"#utility.yul\":13259:13263   */\n      0x11\n        /* \"#utility.yul\":13256:13257   */\n      0x04\n        /* \"#utility.yul\":13249:13264   */\n      mstore\n        /* \"#utility.yul\":13283:13287   */\n      0x24\n        /* \"#utility.yul\":13280:13281   */\n      0x00\n        /* \"#utility.yul\":13273:13288   */\n      revert\n        /* \"#utility.yul\":13300:13533   */\n    tag_96:\n        /* \"#utility.yul\":13339:13342   */\n      0x00\n        /* \"#utility.yul\":13362:13386   */\n      tag_305\n        /* \"#utility.yul\":13380:13385   */\n      dup3\n        /* \"#utility.yul\":13362:13386   */\n      tag_133\n      jump\t// in\n    tag_305:\n        /* \"#utility.yul\":13353:13386   */\n      swap2\n      pop\n        /* \"#utility.yul\":13408:13474   */\n      0xffffffffffffffffffffffffffffffffffffffffffffffffffffffffffffffff\n        /* \"#utility.yul\":13401:13406   */\n      dup3\n        /* \"#utility.yul\":13398:13475   */\n      sub\n        /* \"#utility.yul\":13395:13498   */\n      tag_306\n      jumpi\n        /* \"#utility.yul\":13478:13496   */\n      tag_307\n      tag_166\n      jump\t// in\n    tag_307:\n        /* \"#utility.yul\":13395:13498   */\n    tag_306:\n        /* \"#utility.yul\":13525:13526   */\n      0x01\n        /* \"#utility.yul\":13518:13523   */\n      dup3\n        /* \"#utility.yul\":13514:13527   */\n      add\n        /* \"#utility.yul\":13507:13527   */\n      swap1\n      pop\n        /* \"#utility.yul\":13300:13533   */\n      swap2\n      swap1\n      pop\n      jump\t// out\n        /* \"#utility.yul\":13539:13636   */\n    tag_167:\n        /* \"#utility.yul\":13598:13604   */\n      0x00\n        /* \"#utility.yul\":13626:13629   */\n      dup3\n        /* \"#utility.yul\":13616:13629   */\n      swap1\n      pop\n        /* \"#utility.yul\":13539:13636   */\n      swap3\n      swap2\n      pop\n      pop\n      jump\t// out\n        /* \"#utility.yul\":13642:13822   */\n    tag_168:\n        /* \"#utility.yul\":13690:13767   */\n      0x4e487b7100000000000000000000000000000000000000000000000000000000\n        /* \"#utility.yul\":13687:13688   */\n      0x00\n        /* \"#utility.yul\":13680:13768   */\n      mstore\n        /* \"#utility.yul\":13787:13791   */\n      0x41\n        /* \"#utility.yul\":13784:13785   */\n      0x04\n        /* \"#utility.yul\":13777:13792   */\n      mstore\n        /* \"#utility.yul\":13811:13815   */\n      0x24\n        /* \"#utility.yul\":13808:13809   */\n      0x00\n        /* \"#utility.yul\":13801:13816   */\n      revert\n        /* \"#utility.yul\":13828:13969   */\n    tag_169:\n        /* \"#utility.yul\":13877:13881   */\n      0x00\n        /* \"#utility.yul\":13900:13903   */\n      dup2\n        /* \"#utility.yul\":13892:13903   */\n      swap1\n      pop\n        /* \"#utility.yul\":13923:13926   */\n      dup2\n        /* \"#utility.yul\":13920:13921   */\n      0x00\n        /* \"#utility.yul\":13913:13927   */\n      mstore\n        /* \"#utility.yul\":13957:13961   */\n      0x20\n        /* \"#utility.yul\":13954:13955   */\n      0x00\n        /* \"#utility.yul\":13944:13962   */\n      keccak256\n        /* \"#utility.yul\":13936:13962   */\n      swap1\n      pop\n        /* \"#utility.yul\":13828:13969   */\n      swap2\n      swap1\n      pop\n      jump\t// out\n        /* \"#utility.yul\":13975:14068   */\n    tag_170:\n        /* \"#utility.yul\":14012:14018   */\n      0x00\n        /* \"#utility.yul\":14059:14061   */\n      0x20\n        /* \"#utility.yul\":14054:14056   */\n      0x1f\n        /* \"#utility.yul\":14047:14052   */\n      dup4\n        /* \"#utility.yul\":14043:14057   */\n      add\n        /* \"#utility.yul\":14039:14062   */\n      div\n        /* \"#utility.yul\":14029:14062   */\n      swap1\n      pop\n        /* \"#utility.yul\":13975:14068   */\n      swap2\n      swap1\n      pop\n      jump\t// out\n        /* \"#utility.yul\":14074:14181   */\n    tag_171:\n        /* \"#utility.yul\":14118:14126   */\n      0x00\n        /* \"#utility.yul\":14168:14173   */\n      dup3\n        /* \"#utility.yul\":14162:14166   */\n      dup3\n        /* \"#utility.yul\":14158:14174   */\n      shl\n        /* \"#utility.yul\":14137:14174   */\n      swap1\n      pop\n        /* \"#utility.yul\":14074:14181   */\n      swap3\n      swap2\n      pop\n      pop\n      jump\t// out\n        /* \"#utility.yul\":14187:14580   */\n    tag_172:\n        /* \"#utility.yul\":14256:14262   */\n      0x00\n        /* \"#utility.yul\":14306:14307   */\n      0x08\n        /* \"#utility.yul\":14294:14304   */\n      dup4\n        /* \"#utility.yul\":14290:14308   */\n      mul\n        /* \"#utility.yul\":14329:14426   */\n      tag_314\n        /* \"#utility.yul\":14359:14425   */\n      0xffffffffffffffffffffffffffffffffffffffffffffffffffffffffffffffff\n        /* \"#utility.yul\":14348:14357   */\n      dup3\n        /* \"#utility.yul\":14329:14426   */\n      tag_171\n      jump\t// in\n    tag_314:\n        /* \"#utility.yul\":14447:14486   */\n      tag_315\n        /* \"#utility.yul\":14477:14485   */\n      dup7\n        /* \"#utility.yul\":14466:14475   */\n      dup4\n        /* \"#utility.yul\":14447:14486   */\n      tag_171\n      jump\t// in\n    tag_315:\n        /* \"#utility.yul\":14435:14486   */\n      swap6\n      pop\n        /* \"#utility.yul\":14519:14523   */\n      dup1\n        /* \"#utility.yul\":14515:14524   */\n      not\n        /* \"#utility.yul\":14508:14513   */\n      dup5\n        /* \"#utility.yul\":14504:14525   */\n      and\n        /* \"#utility.yul\":14495:14525   */\n      swap4\n      pop\n        /* \"#utility.yul\":14568:14572   */\n      dup1\n        /* \"#utility.yul\":14558:14566   */\n      dup7\n        /* \"#utility.yul\":14554:14573   */\n      and\n        /* \"#utility.yul\":14547:14552   */\n      dup5\n        /* \"#utility.yul\":14544:14574   */\n      or\n        /* \"#utility.yul\":14534:14574   */\n      swap3\n      pop\n        /* \"#utility.yul\":14263:14580   */\n      pop\n      pop\n        /* \"#utility.yul\":14187:14580   */\n      swap4\n      swap3\n      pop\n      pop\n      pop\n      jump\t// out\n        /* \"#utility.yul\":14586:14646   */\n    tag_173:\n        /* \"#utility.yul\":14614:14617   */\n      0x00\n        /* \"#utility.yul\":14635:14640   */\n      dup2\n        /* \"#utility.yul\":14628:14640   */\n      swap1\n      pop\n        /* \"#utility.yul\":14586:14646   */\n      swap2\n      swap1\n      pop\n      jump\t// out\n        /* \"#utility.yul\":14652:14794   */\n    tag_174:\n        /* \"#utility.yul\":14702:14711   */\n      0x00\n        /* \"#utility.yul\":14735:14788   */\n      tag_318\n        /* \"#utility.yul\":14753:14787   */\n      tag_319\n        /* \"#utility.yul\":14762:14786   */\n      tag_320\n        /* \"#utility.yul\":14780:14785   */\n      dup5\n        /* \"#utility.yul\":14762:14786   */\n      tag_133\n      jump\t// in\n    tag_320:\n        /* \"#utility.yul\":14753:14787   */\n      tag_173\n      jump\t// in\n    tag_319:\n        /* \"#utility.yul\":14735:14788   */\n      tag_133\n      jump\t// in\n    tag_318:\n        /* \"#utility.yul\":14722:14788   */\n      swap1\n      pop\n        /* \"#utility.yul\":14652:14794   */\n      swap2\n      swap1\n      pop\n      jump\t// out\n        /* \"#utility.yul\":14800:14875   */\n    tag_175:\n        /* \"#utility.yul\":14843:14846   */\n      0x00\n        /* \"#utility.yul\":14864:14869   */\n      dup2\n        /* \"#utility.yul\":14857:14869   */\n      swap1\n      pop\n        /* \"#utility.yul\":14800:14875   */\n      swap2\n      swap1\n      pop\n      jump\t// out\n        /* \"#utility.yul\":14881:15150   */\n    tag_176:\n        /* \"#utility.yul\":14991:15030   */\n      tag_323\n        /* \"#utility.yul\":15022:15029   */\n      dup4\n        /* \"#utility.yul\":14991:15030   */\n      tag_174\n      jump\t// in\n    tag_323:\n        /* \"#utility.yul\":15052:15143   */\n      tag_324\n        /* \"#utility.yul\":15101:15142   */\n      tag_325\n        /* \"#utility.yul\":15125:15141   */\n      dup3\n        /* \"#utility.yul\":15101:15142   */\n      tag_175\n      jump\t// in\n    tag_325:\n        /* \"#utility.yul\":15093:15099   */\n      dup5\n        /* \"#utility.yul\":15086:15090   */\n      dup5\n        /* \"#utility.yul\":15080:15091   */\n      sload\n        /* \"#utility.yul\":15052:15143   */\n      tag_172\n      jump\t// in\n    tag_324:\n        /* \"#utility.yul\":15046:15050   */\n      dup3\n        /* \"#utility.yul\":15039:15144   */\n      sstore\n        /* \"#utility.yul\":14957:15150   */\n      pop\n        /* \"#utility.yul\":14881:15150   */\n      pop\n      pop\n      pop\n      jump\t// out\n        /* \"#utility.yul\":15156:15229   */\n    tag_177:\n        /* \"#utility.yul\":15201:15204   */\n      0x00\n        /* \"#utility.yul\":15156:15229   */\n      swap1\n      jump\t// out\n        /* \"#utility.yul\":15235:15424   */\n    tag_178:\n        /* \"#utility.yul\":15312:15344   */\n      tag_328\n      tag_177\n      jump\t// in\n    tag_328:\n        /* \"#utility.yul\":15353:15418   */\n      tag_329\n        /* \"#utility.yul\":15411:15417   */\n      dup2\n        /* \"#utility.yul\":15403:15409   */\n      dup5\n        /* \"#utility.yul\":15397:15401   */\n      dup5\n        /* \"#utility.yul\":15353:15418   */\n      tag_176\n      jump\t// in\n    tag_329:\n        /* \"#utility.yul\":15288:15424   */\n      pop\n        /* \"#utility.yul\":15235:15424   */\n      pop\n      pop\n      jump\t// out\n        /* \"#utility.yul\":15430:15616   */\n    tag_179:\n        /* \"#utility.yul\":15490:15610   */\n    tag_331:\n        /* \"#utility.yul\":15507:15510   */\n      dup2\n        /* \"#utility.yul\":15500:15505   */\n      dup2\n        /* \"#utility.yul\":15497:15511   */\n      lt\n        /* \"#utility.yul\":15490:15610   */\n      iszero\n      tag_333\n      jumpi\n        /* \"#utility.yul\":15561:15600   */\n      tag_334\n        /* \"#utility.yul\":15598:15599   */\n      0x00\n        /* \"#utility.yul\":15591:15596   */\n      dup3\n        /* \"#utility.yul\":15561:15600   */\n      tag_178\n      jump\t// in\n    tag_334:\n        /* \"#utility.yul\":15534:15535   */\n      0x01\n        /* \"#utility.yul\":15527:15532   */\n      dup2\n        /* \"#utility.yul\":15523:15536   */\n      add\n        /* \"#utility.yul\":15514:15536   */\n      swap1\n      pop\n        /* \"#utility.yul\":15490:15610   */\n      jump(tag_331)\n    tag_333:\n        /* \"#utility.yul\":15430:15616   */\n      pop\n      pop\n      jump\t// out\n        /* \"#utility.yul\":15622:16165   */\n    tag_180:\n        /* \"#utility.yul\":15723:15725   */\n      0x1f\n        /* \"#utility.yul\":15718:15721   */\n      dup3\n        /* \"#utility.yul\":15715:15726   */\n      gt\n        /* \"#utility.yul\":15712:16158   */\n      iszero\n      tag_336\n      jumpi\n        /* \"#utility.yul\":15757:15795   */\n      tag_337\n        /* \"#utility.yul\":15789:15794   */\n      dup2\n        /* \"#utility.yul\":15757:15795   */\n      tag_169\n      jump\t// in\n    tag_337:\n        /* \"#utility.yul\":15841:15870   */\n      tag_338\n        /* \"#utility.yul\":15859:15869   */\n      dup5\n        /* \"#utility.yul\":15841:15870   */\n      tag_170\n      jump\t// in\n    tag_338:\n        /* \"#utility.yul\":15831:15839   */\n      dup2\n        /* \"#utility.yul\":15827:15871   */\n      add\n        /* \"#utility.yul\":16024:16026   */\n      0x20\n        /* \"#utility.yul\":16012:16022   */\n      dup6\n        /* \"#utility.yul\":16009:16027   */\n      lt\n        /* \"#utility.yul\":16006:16055   */\n      iszero\n      tag_339\n      jumpi\n        /* \"#utility.yul\":16045:16053   */\n      dup2\n        /* \"#utility.yul\":16030:16053   */\n      swap1\n      pop\n        /* \"#utility.yul\":16006:16055   */\n    tag_339:\n        /* \"#utility.yul\":16068:16148   */\n      tag_340\n        /* \"#utility.yul\":16124:16146   */\n      tag_341\n        /* \"#utility.yul\":16142:16145   */\n      dup6\n        /* \"#utility.yul\":16124:16146   */\n      tag_170\n      jump\t// in\n    tag_341:\n        /* \"#utility.yul\":16114:16122   */\n      dup4\n        /* \"#utility.yul\":16110:16147   */\n      add\n        /* \"#utility.yul\":16097:16108   */\n      dup3\n        /* \"#utility.yul\":16068:16148   */\n      tag_179\n      jump\t// in\n    tag_340:\n        /* \"#utility.yul\":15727:16158   */\n      pop\n      pop\n        /* \"#utility.yul\":15712:16158   */\n    tag_336:\n        /* \"#utility.yul\":15622:16165   */\n      pop\n      pop\n      pop\n      jump\t// out\n        /* \"#utility.yul\":16171:16288   */\n    tag_181:\n        /* \"#utility.yul\":16225:16233   */\n      0x00\n        /* \"#utility.yul\":16275:16280   */\n      dup3\n        /* \"#utility.yul\":16269:16273   */\n      dup3\n        /* \"#utility.yul\":16265:16281   */\n      shr\n        /* \"#utility.yul\":16244:16281   */\n      swap1\n      pop\n        /* \"#utility.yul\":16171:16288   */\n      swap3\n      swap2\n      pop\n      pop\n      jump\t// out\n        /* \"#utility.yul\":16294:16463   */\n    tag_182:\n        /* \"#utility.yul\":16338:16344   */\n      0x00\n        /* \"#utility.yul\":16371:16422   */\n      tag_344\n        /* \"#utility.yul\":16419:16420   */\n      0x00\n        /* \"#utility.yul\":16415:16421   */\n      not\n        /* \"#utility.yul\":16407:16412   */\n      dup5\n        /* \"#utility.yul\":16404:16405   */\n      0x08\n        /* \"#utility.yul\":16400:16413   */\n      mul\n        /* \"#utility.yul\":16371:16422   */\n      tag_181\n      jump\t// in\n    tag_344:\n        /* \"#utility.yul\":16367:16423   */\n      not\n        /* \"#utility.yul\":16452:16456   */\n      dup1\n        /* \"#utility.yul\":16446:16450   */\n      dup4\n        /* \"#utility.yul\":16442:16457   */\n      and\n        /* \"#utility.yul\":16432:16457   */\n      swap2\n      pop\n        /* \"#utility.yul\":16345:16463   */\n      pop\n        /* \"#utility.yul\":16294:16463   */\n      swap3\n      swap2\n      pop\n      pop\n      jump\t// out\n        /* \"#utility.yul\":16468:16763   */\n    tag_183:\n        /* \"#utility.yul\":16544:16548   */\n      0x00\n        /* \"#utility.yul\":16690:16719   */\n      tag_346\n        /* \"#utility.yul\":16715:16718   */\n      dup4\n        /* \"#utility.yul\":16709:16713   */\n      dup4\n        /* \"#utility.yul\":16690:16719   */\n      tag_182\n      jump\t// in\n    tag_346:\n        /* \"#utility.yul\":16682:16719   */\n      swap2\n      pop\n        /* \"#utility.yul\":16752:16755   */\n      dup3\n        /* \"#utility.yul\":16749:16750   */\n      0x02\n        /* \"#utility.yul\":16745:16756   */\n      mul\n        /* \"#utility.yul\":16739:16743   */\n      dup3\n        /* \"#utility.yul\":16736:16757   */\n      or\n        /* \"#utility.yul\":16728:16757   */\n      swap1\n      pop\n        /* \"#utility.yul\":16468:16763   */\n      swap3\n      swap2\n      pop\n      pop\n      jump\t// out\n        /* \"#utility.yul\":16768:18171   */\n    tag_98:\n        /* \"#utility.yul\":16892:16936   */\n      tag_348\n        /* \"#utility.yul\":16932:16935   */\n      dup4\n        /* \"#utility.yul\":16927:16930   */\n      dup4\n        /* \"#utility.yul\":16892:16936   */\n      tag_167\n      jump\t// in\n    tag_348:\n        /* \"#utility.yul\":17001:17019   */\n      0xffffffffffffffff\n        /* \"#utility.yul\":16993:16999   */\n      dup2\n        /* \"#utility.yul\":16990:17020   */\n      gt\n        /* \"#utility.yul\":16987:17043   */\n      iszero\n      tag_349\n      jumpi\n        /* \"#utility.yul\":17023:17041   */\n      tag_350\n      tag_168\n      jump\t// in\n    tag_350:\n        /* \"#utility.yul\":16987:17043   */\n    tag_349:\n        /* \"#utility.yul\":17067:17105   */\n      tag_351\n        /* \"#utility.yul\":17099:17103   */\n      dup3\n        /* \"#utility.yul\":17093:17104   */\n      sload\n        /* \"#utility.yul\":17067:17105   */\n      tag_61\n      jump\t// in\n    tag_351:\n        /* \"#utility.yul\":17152:17219   */\n      tag_352\n        /* \"#utility.yul\":17212:17218   */\n      dup3\n        /* \"#utility.yul\":17204:17210   */\n      dup3\n        /* \"#utility.yul\":17198:17202   */\n      dup6\n        /* \"#utility.yul\":17152:17219   */\n      tag_180\n      jump\t// in\n    tag_352:\n        /* \"#utility.yul\":17246:17247   */\n      0x00\n        /* \"#utility.yul\":17275:17277   */\n      0x1f\n        /* \"#utility.yul\":17267:17273   */\n      dup4\n        /* \"#utility.yul\":17264:17278   */\n      gt\n        /* \"#utility.yul\":17292:17293   */\n      0x01\n        /* \"#utility.yul\":17287:17919   */\n      dup2\n      eq\n      tag_354\n      jumpi\n        /* \"#utility.yul\":17963:17964   */\n      0x00\n        /* \"#utility.yul\":17980:17986   */\n      dup5\n        /* \"#utility.yul\":17977:18061   */\n      iszero\n      tag_355\n      jumpi\n        /* \"#utility.yul\":18036:18045   */\n      dup3\n        /* \"#utility.yul\":18031:18034   */\n      dup8\n        /* \"#utility.yul\":18027:18046   */\n      add\n        /* \"#utility.yul\":18014:18047   */\n      calldataload\n        /* \"#utility.yul\":18005:18047   */\n      swap1\n      pop\n        /* \"#utility.yul\":17977:18061   */\n    tag_355:\n        /* \"#utility.yul\":18087:18154   */\n      tag_356\n        /* \"#utility.yul\":18147:18153   */\n      dup6\n        /* \"#utility.yul\":18140:18145   */\n      dup3\n        /* \"#utility.yul\":18087:18154   */\n      tag_183\n      jump\t// in\n    tag_356:\n        /* \"#utility.yul\":18081:18085   */\n      dup7\n        /* \"#utility.yul\":18074:18155   */\n      sstore\n        /* \"#utility.yul\":17936:18165   */\n      pop\n        /* \"#utility.yul\":17257:18165   */\n      jump(tag_353)\n        /* \"#utility.yul\":17287:17919   */\n    tag_354:\n        /* \"#utility.yul\":17339:17343   */\n      0x1f\n        /* \"#utility.yul\":17335:17344   */\n      not\n        /* \"#utility.yul\":17327:17333   */\n      dup5\n        /* \"#utility.yul\":17323:17345   */\n      and\n        /* \"#utility.yul\":17373:17410   */\n      tag_357\n        /* \"#utility.yul\":17405:17409   */\n      dup7\n        /* \"#utility.yul\":17373:17410   */\n      tag_169\n      jump\t// in\n    tag_357:\n        /* \"#utility.yul\":17432:17433   */\n      0x00\n        /* \"#utility.yul\":17446:17661   */\n    tag_358:\n        /* \"#utility.yul\":17460:17467   */\n      dup3\n        /* \"#utility.yul\":17457:17458   */\n      dup2\n        /* \"#utility.yul\":17454:17468   */\n      lt\n        /* \"#utility.yul\":17446:17661   */\n      iszero\n      tag_360\n      jumpi\n        /* \"#utility.yul\":17546:17555   */\n      dup5\n        /* \"#utility.yul\":17541:17544   */\n      dup10\n        /* \"#utility.yul\":17537:17556   */\n      add\n        /* \"#utility.yul\":17524:17557   */\n      calldataload\n        /* \"#utility.yul\":17516:17522   */\n      dup3\n        /* \"#utility.yul\":17509:17558   */\n      sstore\n        /* \"#utility.yul\":17597:17598   */\n      0x01\n        /* \"#utility.yul\":17589:17595   */\n      dup3\n        /* \"#utility.yul\":17585:17599   */\n      add\n        /* \"#utility.yul\":17575:17599   */\n      swap2\n      pop\n        /* \"#utility.yul\":17644:17646   */\n      0x20\n        /* \"#utility.yul\":17633:17642   */\n      dup6\n        /* \"#utility.yul\":17629:17647   */\n      add\n        /* \"#utility.yul\":17616:17647   */\n      swap5\n      pop\n        /* \"#utility.yul\":17483:17487   */\n      0x20\n        /* \"#utility.yul\":17480:17481   */\n      dup2\n        /* \"#utility.yul\":17476:17488   */\n      add\n        /* \"#utility.yul\":17471:17488   */\n      swap1\n      pop\n        /* \"#utility.yul\":17446:17661   */\n      jump(tag_358)\n    tag_360:\n        /* \"#utility.yul\":17689:17695   */\n      dup7\n        /* \"#utility.yul\":17680:17687   */\n      dup4\n        /* \"#utility.yul\":17677:17696   */\n      lt\n        /* \"#utility.yul\":17674:17860   */\n      iszero\n      tag_361\n      jumpi\n        /* \"#utility.yul\":17754:17763   */\n      dup5\n        /* \"#utility.yul\":17749:17752   */\n      dup10\n        /* \"#utility.yul\":17745:17764   */\n      add\n        /* \"#utility.yul\":17732:17765   */\n      calldataload\n        /* \"#utility.yul\":17797:17845   */\n      tag_362\n        /* \"#utility.yul\":17839:17843   */\n      0x1f\n        /* \"#utility.yul\":17831:17837   */\n      dup10\n        /* \"#utility.yul\":17827:17844   */\n      and\n        /* \"#utility.yul\":17816:17825   */\n      dup3\n        /* \"#utility.yul\":17797:17845   */\n      tag_182\n      jump\t// in\n    tag_362:\n        /* \"#utility.yul\":17789:17795   */\n      dup4\n        /* \"#utility.yul\":17782:17846   */\n      sstore\n        /* \"#utility.yul\":17697:17860   */\n      pop\n        /* \"#utility.yul\":17674:17860   */\n    tag_361:\n        /* \"#utility.yul\":17906:17907   */\n      0x01\n        /* \"#utility.yul\":17902:17903   */\n      0x02\n        /* \"#utility.yul\":17894:17900   */\n      dup9\n        /* \"#utility.yul\":17890:17904   */\n      mul\n        /* \"#utility.yul\":17886:17908   */\n      add\n        /* \"#utility.yul\":17880:17884   */\n      dup9\n        /* \"#utility.yul\":17873:17909   */\n      sstore\n        /* \"#utility.yul\":17294:17919   */\n      pop\n      pop\n      pop\n        /* \"#utility.yul\":17257:18165   */\n    tag_353:\n      pop\n        /* \"#utility.yul\":16867:18171   */\n      pop\n      pop\n      pop\n        /* \"#utility.yul\":16768:18171   */\n      pop\n      pop\n      pop\n      jump\t// out\n        /* \"#utility.yul\":18177:18323   */\n    tag_184:\n        /* \"#utility.yul\":18274:18280   */\n      dup3\n        /* \"#utility.yul\":18269:18272   */\n      dup2\n        /* \"#utility.yul\":18264:18267   */\n      dup4\n        /* \"#utility.yul\":18251:18281   */\n      calldatacopy\n        /* \"#utility.yul\":18315:18316   */\n      0x00\n        /* \"#utility.yul\":18306:18312   */\n      dup4\n        /* \"#utility.yul\":18301:18304   */\n      dup4\n        /* \"#utility.yul\":18297:18313   */\n      add\n        /* \"#utility.yul\":18290:18317   */\n      mstore\n        /* \"#utility.yul\":18177:18323   */\n      pop\n      pop\n      pop\n      jump\t// out\n        /* \"#utility.yul\":18353:18670   */\n    tag_185:\n        /* \"#utility.yul\":18451:18454   */\n      0x00\n        /* \"#utility.yul\":18472:18543   */\n      tag_365\n        /* \"#utility.yul\":18536:18542   */\n      dup4\n        /* \"#utility.yul\":18531:18534   */\n      dup6\n        /* \"#utility.yul\":18472:18543   */\n      tag_137\n      jump\t// in\n    tag_365:\n        /* \"#utility.yul\":18465:18543   */\n      swap4\n      pop\n        /* \"#utility.yul\":18553:18609   */\n      tag_366\n        /* \"#utility.yul\":18602:18608   */\n      dup4\n        /* \"#utility.yul\":18597:18600   */\n      dup6\n        /* \"#utility.yul\":18590:18595   */\n      dup5\n        /* \"#utility.yul\":18553:18609   */\n      tag_184\n      jump\t// in\n    tag_366:\n        /* \"#utility.yul\":18634:18663   */\n      tag_367\n        /* \"#utility.yul\":18656:18662   */\n      dup4\n        /* \"#utility.yul\":18634:18663   */\n      tag_139\n      jump\t// in\n    tag_367:\n        /* \"#utility.yul\":18629:18632   */\n      dup5\n        /* \"#utility.yul\":18625:18664   */\n      add\n        /* \"#utility.yul\":18618:18664   */\n      swap1\n      pop\n        /* \"#utility.yul\":18353:18670   */\n      swap4\n      swap3\n      pop\n      pop\n      pop\n      jump\t// out\n        /* \"#utility.yul\":18676:19340   */\n    tag_101:\n        /* \"#utility.yul\":18885:18889   */\n      0x00\n        /* \"#utility.yul\":18923:18925   */\n      0x60\n        /* \"#utility.yul\":18912:18921   */\n      dup3\n        /* \"#utility.yul\":18908:18926   */\n      add\n        /* \"#utility.yul\":18900:18926   */\n      swap1\n      pop\n        /* \"#utility.yul\":18936:19007   */\n      tag_369\n        /* \"#utility.yul\":19004:19005   */\n      0x00\n        /* \"#utility.yul\":18993:19002   */\n      dup4\n        /* \"#utility.yul\":18989:19006   */\n      add\n        /* \"#utility.yul\":18980:18986   */\n      dup9\n        /* \"#utility.yul\":18936:19007   */\n      tag_146\n      jump\t// in\n    tag_369:\n        /* \"#utility.yul\":19054:19063   */\n      dup2\n        /* \"#utility.yul\":19048:19052   */\n      dup2\n        /* \"#utility.yul\":19044:19064   */\n      sub\n        /* \"#utility.yul\":19039:19041   */\n      0x20\n        /* \"#utility.yul\":19028:19037   */\n      dup4\n        /* \"#utility.yul\":19024:19042   */\n      add\n        /* \"#utility.yul\":19017:19065   */\n      mstore\n        /* \"#utility.yul\":19082:19170   */\n      tag_370\n        /* \"#utility.yul\":19165:19169   */\n      dup2\n        /* \"#utility.yul\":19156:19162   */\n      dup7\n        /* \"#utility.yul\":19148:19154   */\n      dup9\n        /* \"#utility.yul\":19082:19170   */\n      tag_185\n      jump\t// in\n    tag_370:\n        /* \"#utility.yul\":19074:19170   */\n      swap1\n      pop\n        /* \"#utility.yul\":19217:19226   */\n      dup2\n        /* \"#utility.yul\":19211:19215   */\n      dup2\n        /* \"#utility.yul\":19207:19227   */\n      sub\n        /* \"#utility.yul\":19202:19204   */\n      0x40\n        /* \"#utility.yul\":19191:19200   */\n      dup4\n        /* \"#utility.yul\":19187:19205   */\n      add\n        /* \"#utility.yul\":19180:19228   */\n      mstore\n        /* \"#utility.yul\":19245:19333   */\n      tag_371\n        /* \"#utility.yul\":19328:19332   */\n      dup2\n        /* \"#utility.yul\":19319:19325   */\n      dup5\n        /* \"#utility.yul\":19311:19317   */\n      dup7\n        /* \"#utility.yul\":19245:19333   */\n      tag_185\n      jump\t// in\n    tag_371:\n        /* \"#utility.yul\":19237:19333   */\n      swap1\n      pop\n        /* \"#utility.yul\":18676:19340   */\n      swap7\n      swap6\n      pop\n      pop\n      pop\n      pop\n      pop\n      pop\n      jump\t// out\n        /* \"#utility.yul\":19346:19537   */\n    tag_126:\n        /* \"#utility.yul\":19386:19389   */\n      0x00\n        /* \"#utility.yul\":19405:19425   */\n      tag_373\n        /* \"#utility.yul\":19423:19424   */\n      dup3\n        /* \"#utility.yul\":19405:19425   */\n      tag_133\n      jump\t// in\n    tag_373:\n        /* \"#utility.yul\":19400:19425   */\n      swap2\n      pop\n        /* \"#utility.yul\":19439:19459   */\n      tag_374\n        /* \"#utility.yul\":19457:19458   */\n      dup4\n        /* \"#utility.yul\":19439:19459   */\n      tag_133\n      jump\t// in\n    tag_374:\n        /* \"#utility.yul\":19434:19459   */\n      swap3\n      pop\n        /* \"#utility.yul\":19482:19483   */\n      dup3\n        /* \"#utility.yul\":19479:19480   */\n      dup3\n        /* \"#utility.yul\":19475:19484   */\n      add\n        /* \"#utility.yul\":19468:19484   */\n      swap1\n      pop\n        /* \"#utility.yul\":19503:19506   */\n      dup1\n        /* \"#utility.yul\":19500:19501   */\n      dup3\n        /* \"#utility.yul\":19497:19507   */\n      gt\n        /* \"#utility.yul\":19494:19530   */\n      iszero\n      tag_375\n      jumpi\n        /* \"#utility.yul\":19510:19528   */\n      tag_376\n      tag_166\n      jump\t// in\n    tag_376:\n        /* \"#utility.yul\":19494:19530   */\n    tag_375:\n        /* \"#utility.yul\":19346:19537   */\n      swap3\n      swap2\n      pop\n      pop\n      jump\t// out\n        /* \"#utility.yul\":19543:19875   */\n    tag_128:\n        /* \"#utility.yul\":19664:19668   */\n      0x00\n        /* \"#utility.yul\":19702:19704   */\n      0x40\n        /* \"#utility.yul\":19691:19700   */\n      dup3\n        /* \"#utility.yul\":19687:19705   */\n      add\n        /* \"#utility.yul\":19679:19705   */\n      swap1\n      pop\n        /* \"#utility.yul\":19715:19786   */\n      tag_378\n        /* \"#utility.yul\":19783:19784   */\n      0x00\n        /* \"#utility.yul\":19772:19781   */\n      dup4\n        /* \"#utility.yul\":19768:19785   */\n      add\n        /* \"#utility.yul\":19759:19765   */\n      dup6\n        /* \"#utility.yul\":19715:19786   */\n      tag_143\n      jump\t// in\n    tag_378:\n        /* \"#utility.yul\":19796:19868   */\n      tag_379\n        /* \"#utility.yul\":19864:19866   */\n      0x20\n        /* \"#utility.yul\":19853:19862   */\n      dup4\n        /* \"#utility.yul\":19849:19867   */\n      add\n        /* \"#utility.yul\":19840:19846   */\n      dup5\n        /* \"#utility.yul\":19796:19868   */\n      tag_146\n      jump\t// in\n    tag_379:\n        /* \"#utility.yul\":19543:19875   */\n      swap4\n      swap3\n      pop\n      pop\n      pop\n      jump\t// out\n\n    auxdata: 0xa2646970667358221220fa1be32c4bb6189544561bab27ddefcb9d0f489d8126c8aebe18af55848806da64736f6c63430008140033\n}\n",
				"bytecode": {
					"linkReferences": {},
					"object": "608060405234801561000f575f80fd5b50733b73a7b541e5e268147895a754ed9b0a71b1ab795f806101000a81548173ffffffffffffffffffffffffffffffffffffffff021916908373ffffffffffffffffffffffffffffffffffffffff16021790555061164e806100705f395ff3fe608060405234801561000f575f80fd5b506004361061009c575f3560e01c8063a95824b411610064578063a95824b414610157578063c1e6adfd14610175578063d0ebdbe714610191578063d2111a72146101ad578063f315f553146101c95761009c565b80630121b93f146100a057806318d9adab146100bc5780633d2f5bda146100ed578063481c6a751461010957806376dd110f14610127575b5f80fd5b6100ba60048036038101906100b59190610c3d565b6101e7565b005b6100d660048036038101906100d19190610c3d565b6103fe565b6040516100e4929190610cf2565b60405180910390f35b61010760048036038101906101029190610c3d565b61052a565b005b61011161069e565b60405161011e9190610d66565b60405180910390f35b610141600480360381019061013c9190610da9565b6106c1565b60405161014e9190610de3565b60405180910390f35b61015f6106d6565b60405161016c9190610e16565b60405180910390f35b61018f600480360381019061018a9190610e90565b6106e8565b005b6101ab60048036038101906101a69190610da9565b610810565b005b6101c760048036038101906101c29190610c3d565b6108df565b005b6101d1610ac0565b6040516101de9190610de3565b60405180910390f35b5f60149054906101000a900460ff16610235576040517f08c379a000000000000000000000000000000000000000000000000000000000815260040161022c90610f58565b60405180910390fd5b6002548110610279576040517f08c379a000000000000000000000000000000000000000000000000000000000815260040161027090610fc0565b60405180910390fd5b5f60015f8381526020019081526020015f2090505f815f01805461029c9061100b565b9050116102de576040517f08c379a00000000000000000000000000000000000000000000000000000000081526004016102d590611085565b60405180910390fd5b806002015f3373ffffffffffffffffffffffffffffffffffffffff1673ffffffffffffffffffffffffffffffffffffffff1681526020019081526020015f205f9054906101000a900460ff161561036a576040517f08c379a0000000000000000000000000000000000000000000000000000000008152600401610361906110ed565b60405180910390fd5b6001816002015f3373ffffffffffffffffffffffffffffffffffffffff1673ffffffffffffffffffffffffffffffffffffffff1681526020019081526020015f205f6101000a81548160ff0219169083151502179055507fd8d46ecf72f6103ff400e47d1b5fdfe248d4ca34a4acd39f63fbe903c8f7e7bd82336040516103f292919061110b565b60405180910390a15050565b6001602052805f5260405f205f91509050805f01805461041d9061100b565b80601f01602080910402602001604051908101604052809291908181526020018280546104499061100b565b80156104945780601f1061046b57610100808354040283529160200191610494565b820191905f5260205f20905b81548152906001019060200180831161047757829003601f168201915b5050505050908060010180546104a99061100b565b80601f01602080910402602001604051908101604052809291908181526020018280546104d59061100b565b80156105205780601f106104f757610100808354040283529160200191610520565b820191905f5260205f20905b81548152906001019060200180831161050357829003601f168201915b5050505050905082565b5f8054906101000a900473ffffffffffffffffffffffffffffffffffffffff1673ffffffffffffffffffffffffffffffffffffffff163373ffffffffffffffffffffffffffffffffffffffff16146105b7576040517f08c379a00000000000000000000000000000000000000000000000000000000081526004016105ae906111a2565b60405180910390fd5b5f60149054906101000a900460ff1615610606576040517f08c379a00000000000000000000000000000000000000000000000000000000081526004016105fd9061120a565b60405180910390fd5b600254811061064a576040517f08c379a000000000000000000000000000000000000000000000000000000000815260040161064190610fc0565b60405180910390fd5b60015f60146101000a81548160ff0219169083151502179055507fcf33babc496bb6dc2942b39cb7b75766bbbadf7da50d176ff8c513e991140239816040516106939190610de3565b60405180910390a150565b5f8054906101000a900473ffffffffffffffffffffffffffffffffffffffff1681565b6003602052805f5260405f205f915090505481565b5f60149054906101000a900460ff1681565b5f8054906101000a900473ffffffffffffffffffffffffffffffffffffffff1673ffffffffffffffffffffffffffffffffffffffff163373ffffffffffffffffffffffffffffffffffffffff1614610775576040517f08c379a000000000000000000000000000000000000000000000000000000000815260040161076c906111a2565b60405180910390fd5b5f60025f81548092919061078890611255565b9190505590505f60015f8381526020019081526020015f2090508585825f0191826107b4929190611470565b5083838260010191826107c8929190611470565b507f291e52a7839d5bcf62927959ebe247c310dcf9a518aad0be9cc3de6f3f6ab4f08287878787604051610800959493929190611577565b60405180910390a1505050505050565b5f8054906101000a900473ffffffffffffffffffffffffffffffffffffffff1673ffffffffffffffffffffffffffffffffffffffff163373ffffffffffffffffffffffffffffffffffffffff161461089d576040517f08c379a0000000000000000000000000000000000000000000000000000000008152600401610894906111a2565b60405180910390fd5b805f806101000a81548173ffffffffffffffffffffffffffffffffffffffff021916908373ffffffffffffffffffffffffffffffffffffffff16021790555050565b5f8054906101000a900473ffffffffffffffffffffffffffffffffffffffff1673ffffffffffffffffffffffffffffffffffffffff163373ffffffffffffffffffffffffffffffffffffffff161461096c576040517f08c379a0000000000000000000000000000000000000000000000000000000008152600401610963906111a2565b60405180910390fd5b5f60149054906101000a900460ff166109ba576040517f08c379a00000000000000000000000000000000000000000000000000000000081526004016109b190610f58565b60405180910390fd5b60025481106109fe576040517f08c379a00000000000000000000000000000000000000000000000000000000081526004016109f590610fc0565b60405180910390fd5b5f60015f8381526020019081526020015f2090505f815f018054610a219061100b565b905011610a63576040517f08c379a0000000000000000000000000000000000000000000000000000000008152600401610a5a90611085565b60405180910390fd5b5f8060146101000a81548160ff0219169083151502179055507f8e9b46a70b3967bc9ea56ca61732c363a191fac88ae3ba011f4e030711c9011782604051610aab9190610de3565b60405180910390a1610abc82610ac6565b5050565b60025481565b5f60015f8381526020019081526020015f2090505f600a90505f5b600254811015610bfc57826002015f805f9054906101000a900473ffffffffffffffffffffffffffffffffffffffff1673ffffffffffffffffffffffffffffffffffffffff1673ffffffffffffffffffffffffffffffffffffffff1681526020019081526020015f205f9054906101000a900460ff1615610be9578160035f3373ffffffffffffffffffffffffffffffffffffffff1673ffffffffffffffffffffffffffffffffffffffff1681526020019081526020015f205f828254610ba891906115be565b925050819055507f6177f4110771217c72937d51f3a73915f2c714a6b98507e17eea7a186136a24a3383604051610be09291906115f1565b60405180910390a15b8080610bf490611255565b915050610ae1565b50505050565b5f80fd5b5f80fd5b5f819050919050565b610c1c81610c0a565b8114610c26575f80fd5b50565b5f81359050610c3781610c13565b92915050565b5f60208284031215610c5257610c51610c02565b5b5f610c5f84828501610c29565b91505092915050565b5f81519050919050565b5f82825260208201905092915050565b5f5b83811015610c9f578082015181840152602081019050610c84565b5f8484015250505050565b5f601f19601f8301169050919050565b5f610cc482610c68565b610cce8185610c72565b9350610cde818560208601610c82565b610ce781610caa565b840191505092915050565b5f6040820190508181035f830152610d0a8185610cba565b90508181036020830152610d1e8184610cba565b90509392505050565b5f73ffffffffffffffffffffffffffffffffffffffff82169050919050565b5f610d5082610d27565b9050919050565b610d6081610d46565b82525050565b5f602082019050610d795f830184610d57565b92915050565b610d8881610d46565b8114610d92575f80fd5b50565b5f81359050610da381610d7f565b92915050565b5f60208284031215610dbe57610dbd610c02565b5b5f610dcb84828501610d95565b91505092915050565b610ddd81610c0a565b82525050565b5f602082019050610df65f830184610dd4565b92915050565b5f8115159050919050565b610e1081610dfc565b82525050565b5f602082019050610e295f830184610e07565b92915050565b5f80fd5b5f80fd5b5f80fd5b5f8083601f840112610e5057610e4f610e2f565b5b8235905067ffffffffffffffff811115610e6d57610e6c610e33565b5b602083019150836001820283011115610e8957610e88610e37565b5b9250929050565b5f805f8060408587031215610ea857610ea7610c02565b5b5f85013567ffffffffffffffff811115610ec557610ec4610c06565b5b610ed187828801610e3b565b9450945050602085013567ffffffffffffffff811115610ef457610ef3610c06565b5b610f0087828801610e3b565b925092505092959194509250565b7f566f74696e67206973206e6f74206f70656e2e000000000000000000000000005f82015250565b5f610f42601383610c72565b9150610f4d82610f0e565b602082019050919050565b5f6020820190508181035f830152610f6f81610f36565b9050919050565b7f496e76616c696420746f7069632049442e0000000000000000000000000000005f82015250565b5f610faa601183610c72565b9150610fb582610f76565b602082019050919050565b5f6020820190508181035f830152610fd781610f9e565b9050919050565b7f4e487b71000000000000000000000000000000000000000000000000000000005f52602260045260245ffd5b5f600282049050600182168061102257607f821691505b60208210810361103557611034610fde565b5b50919050565b7f546f70696320646f6573206e6f742065786973742e00000000000000000000005f82015250565b5f61106f601583610c72565b915061107a8261103b565b602082019050919050565b5f6020820190508181035f83015261109c81611063565b9050919050565b7f416c726561647920766f74656420666f72207468697320746f7069632e0000005f82015250565b5f6110d7601d83610c72565b91506110e2826110a3565b602082019050919050565b5f6020820190508181035f830152611104816110cb565b9050919050565b5f60408201905061111e5f830185610dd4565b61112b6020830184610d57565b9392505050565b7f4f6e6c79206d616e616765722063616e20706572666f726d20746869732061635f8201527f74696f6e2e000000000000000000000000000000000000000000000000000000602082015250565b5f61118c602583610c72565b915061119782611132565b604082019050919050565b5f6020820190508181035f8301526111b981611180565b9050919050565b7f566f74696e6720697320616c7265616479206f70656e2e0000000000000000005f82015250565b5f6111f4601783610c72565b91506111ff826111c0565b602082019050919050565b5f6020820190508181035f830152611221816111e8565b9050919050565b7f4e487b71000000000000000000000000000000000000000000000000000000005f52601160045260245ffd5b5f61125f82610c0a565b91507fffffffffffffffffffffffffffffffffffffffffffffffffffffffffffffffff820361129157611290611228565b5b600182019050919050565b5f82905092915050565b7f4e487b71000000000000000000000000000000000000000000000000000000005f52604160045260245ffd5b5f819050815f5260205f209050919050565b5f6020601f8301049050919050565b5f82821b905092915050565b5f6008830261132f7fffffffffffffffffffffffffffffffffffffffffffffffffffffffffffffffff826112f4565b61133986836112f4565b95508019841693508086168417925050509392505050565b5f819050919050565b5f61137461136f61136a84610c0a565b611351565b610c0a565b9050919050565b5f819050919050565b61138d8361135a565b6113a16113998261137b565b848454611300565b825550505050565b5f90565b6113b56113a9565b6113c0818484611384565b505050565b5b818110156113e3576113d85f826113ad565b6001810190506113c6565b5050565b601f821115611428576113f9816112d3565b611402846112e5565b81016020851015611411578190505b61142561141d856112e5565b8301826113c5565b50505b505050565b5f82821c905092915050565b5f6114485f198460080261142d565b1980831691505092915050565b5f6114608383611439565b9150826002028217905092915050565b61147a838361129c565b67ffffffffffffffff811115611493576114926112a6565b5b61149d825461100b565b6114a88282856113e7565b5f601f8311600181146114d5575f84156114c3578287013590505b6114cd8582611455565b865550611534565b601f1984166114e3866112d3565b5f5b8281101561150a578489013582556001820191506020850194506020810190506114e5565b868310156115275784890135611523601f891682611439565b8355505b6001600288020188555050505b50505050505050565b828183375f83830152505050565b5f6115568385610c72565b935061156383858461153d565b61156c83610caa565b840190509392505050565b5f60608201905061158a5f830188610dd4565b818103602083015261159d81868861154b565b905081810360408301526115b281848661154b565b90509695505050505050565b5f6115c882610c0a565b91506115d383610c0a565b92508282019050808211156115eb576115ea611228565b5b92915050565b5f6040820190506116045f830185610d57565b6116116020830184610dd4565b939250505056fea2646970667358221220fa1be32c4bb6189544561bab27ddefcb9d0f489d8126c8aebe18af55848806da64736f6c63430008140033",
					"opcodes": "PUSH1 0x80 PUSH1 0x40 MSTORE CALLVALUE DUP1 ISZERO PUSH2 0xF JUMPI PUSH0 DUP1 REVERT JUMPDEST POP PUSH20 0x3B73A7B541E5E268147895A754ED9B0A71B1AB79 PUSH0 DUP1 PUSH2 0x100 EXP DUP2 SLOAD DUP2 PUSH20 0xFFFFFFFFFFFFFFFFFFFFFFFFFFFFFFFFFFFFFFFF MUL NOT AND SWAP1 DUP4 PUSH20 0xFFFFFFFFFFFFFFFFFFFFFFFFFFFFFFFFFFFFFFFF AND MUL OR SWAP1 SSTORE POP PUSH2 0x164E DUP1 PUSH2 0x70 PUSH0 CODECOPY PUSH0 RETURN INVALID PUSH1 0x80 PUSH1 0x40 MSTORE CALLVALUE DUP1 ISZERO PUSH2 0xF JUMPI PUSH0 DUP1 REVERT JUMPDEST POP PUSH1 0x4 CALLDATASIZE LT PUSH2 0x9C JUMPI PUSH0 CALLDATALOAD PUSH1 0xE0 SHR DUP1 PUSH4 0xA95824B4 GT PUSH2 0x64 JUMPI DUP1 PUSH4 0xA95824B4 EQ PUSH2 0x157 JUMPI DUP1 PUSH4 0xC1E6ADFD EQ PUSH2 0x175 JUMPI DUP1 PUSH4 0xD0EBDBE7 EQ PUSH2 0x191 JUMPI DUP1 PUSH4 0xD2111A72 EQ PUSH2 0x1AD JUMPI DUP1 PUSH4 0xF315F553 EQ PUSH2 0x1C9 JUMPI PUSH2 0x9C JUMP JUMPDEST DUP1 PUSH4 0x121B93F EQ PUSH2 0xA0 JUMPI DUP1 PUSH4 0x18D9ADAB EQ PUSH2 0xBC JUMPI DUP1 PUSH4 0x3D2F5BDA EQ PUSH2 0xED JUMPI DUP1 PUSH4 0x481C6A75 EQ PUSH2 0x109 JUMPI DUP1 PUSH4 0x76DD110F EQ PUSH2 0x127 JUMPI JUMPDEST PUSH0 DUP1 REVERT JUMPDEST PUSH2 0xBA PUSH1 0x4 DUP1 CALLDATASIZE SUB DUP2 ADD SWAP1 PUSH2 0xB5 SWAP2 SWAP1 PUSH2 0xC3D JUMP JUMPDEST PUSH2 0x1E7 JUMP JUMPDEST STOP JUMPDEST PUSH2 0xD6 PUSH1 0x4 DUP1 CALLDATASIZE SUB DUP2 ADD SWAP1 PUSH2 0xD1 SWAP2 SWAP1 PUSH2 0xC3D JUMP JUMPDEST PUSH2 0x3FE JUMP JUMPDEST PUSH1 0x40 MLOAD PUSH2 0xE4 SWAP3 SWAP2 SWAP1 PUSH2 0xCF2 JUMP JUMPDEST PUSH1 0x40 MLOAD DUP1 SWAP2 SUB SWAP1 RETURN JUMPDEST PUSH2 0x107 PUSH1 0x4 DUP1 CALLDATASIZE SUB DUP2 ADD SWAP1 PUSH2 0x102 SWAP2 SWAP1 PUSH2 0xC3D JUMP JUMPDEST PUSH2 0x52A JUMP JUMPDEST STOP JUMPDEST PUSH2 0x111 PUSH2 0x69E JUMP JUMPDEST PUSH1 0x40 MLOAD PUSH2 0x11E SWAP2 SWAP1 PUSH2 0xD66 JUMP JUMPDEST PUSH1 0x40 MLOAD DUP1 SWAP2 SUB SWAP1 RETURN JUMPDEST PUSH2 0x141 PUSH1 0x4 DUP1 CALLDATASIZE SUB DUP2 ADD SWAP1 PUSH2 0x13C SWAP2 SWAP1 PUSH2 0xDA9 JUMP JUMPDEST PUSH2 0x6C1 JUMP JUMPDEST PUSH1 0x40 MLOAD PUSH2 0x14E SWAP2 SWAP1 PUSH2 0xDE3 JUMP JUMPDEST PUSH1 0x40 MLOAD DUP1 SWAP2 SUB SWAP1 RETURN JUMPDEST PUSH2 0x15F PUSH2 0x6D6 JUMP JUMPDEST PUSH1 0x40 MLOAD PUSH2 0x16C SWAP2 SWAP1 PUSH2 0xE16 JUMP JUMPDEST PUSH1 0x40 MLOAD DUP1 SWAP2 SUB SWAP1 RETURN JUMPDEST PUSH2 0x18F PUSH1 0x4 DUP1 CALLDATASIZE SUB DUP2 ADD SWAP1 PUSH2 0x18A SWAP2 SWAP1 PUSH2 0xE90 JUMP JUMPDEST PUSH2 0x6E8 JUMP JUMPDEST STOP JUMPDEST PUSH2 0x1AB PUSH1 0x4 DUP1 CALLDATASIZE SUB DUP2 ADD SWAP1 PUSH2 0x1A6 SWAP2 SWAP1 PUSH2 0xDA9 JUMP JUMPDEST PUSH2 0x810 JUMP JUMPDEST STOP JUMPDEST PUSH2 0x1C7 PUSH1 0x4 DUP1 CALLDATASIZE SUB DUP2 ADD SWAP1 PUSH2 0x1C2 SWAP2 SWAP1 PUSH2 0xC3D JUMP JUMPDEST PUSH2 0x8DF JUMP JUMPDEST STOP JUMPDEST PUSH2 0x1D1 PUSH2 0xAC0 JUMP JUMPDEST PUSH1 0x40 MLOAD PUSH2 0x1DE SWAP2 SWAP1 PUSH2 0xDE3 JUMP JUMPDEST PUSH1 0x40 MLOAD DUP1 SWAP2 SUB SWAP1 RETURN JUMPDEST PUSH0 PUSH1 0x14 SWAP1 SLOAD SWAP1 PUSH2 0x100 EXP SWAP1 DIV PUSH1 0xFF AND PUSH2 0x235 JUMPI PUSH1 0x40 MLOAD PUSH32 0x8C379A000000000000000000000000000000000000000000000000000000000 DUP2 MSTORE PUSH1 0x4 ADD PUSH2 0x22C SWAP1 PUSH2 0xF58 JUMP JUMPDEST PUSH1 0x40 MLOAD DUP1 SWAP2 SUB SWAP1 REVERT JUMPDEST PUSH1 0x2 SLOAD DUP2 LT PUSH2 0x279 JUMPI PUSH1 0x40 MLOAD PUSH32 0x8C379A000000000000000000000000000000000000000000000000000000000 DUP2 MSTORE PUSH1 0x4 ADD PUSH2 0x270 SWAP1 PUSH2 0xFC0 JUMP JUMPDEST PUSH1 0x40 MLOAD DUP1 SWAP2 SUB SWAP1 REVERT JUMPDEST PUSH0 PUSH1 0x1 PUSH0 DUP4 DUP2 MSTORE PUSH1 0x20 ADD SWAP1 DUP2 MSTORE PUSH1 0x20 ADD PUSH0 KECCAK256 SWAP1 POP PUSH0 DUP2 PUSH0 ADD DUP1 SLOAD PUSH2 0x29C SWAP1 PUSH2 0x100B JUMP JUMPDEST SWAP1 POP GT PUSH2 0x2DE JUMPI PUSH1 0x40 MLOAD PUSH32 0x8C379A000000000000000000000000000000000000000000000000000000000 DUP2 MSTORE PUSH1 0x4 ADD PUSH2 0x2D5 SWAP1 PUSH2 0x1085 JUMP JUMPDEST PUSH1 0x40 MLOAD DUP1 SWAP2 SUB SWAP1 REVERT JUMPDEST DUP1 PUSH1 0x2 ADD PUSH0 CALLER PUSH20 0xFFFFFFFFFFFFFFFFFFFFFFFFFFFFFFFFFFFFFFFF AND PUSH20 0xFFFFFFFFFFFFFFFFFFFFFFFFFFFFFFFFFFFFFFFF AND DUP2 MSTORE PUSH1 0x20 ADD SWAP1 DUP2 MSTORE PUSH1 0x20 ADD PUSH0 KECCAK256 PUSH0 SWAP1 SLOAD SWAP1 PUSH2 0x100 EXP SWAP1 DIV PUSH1 0xFF AND ISZERO PUSH2 0x36A JUMPI PUSH1 0x40 MLOAD PUSH32 0x8C379A000000000000000000000000000000000000000000000000000000000 DUP2 MSTORE PUSH1 0x4 ADD PUSH2 0x361 SWAP1 PUSH2 0x10ED JUMP JUMPDEST PUSH1 0x40 MLOAD DUP1 SWAP2 SUB SWAP1 REVERT JUMPDEST PUSH1 0x1 DUP2 PUSH1 0x2 ADD PUSH0 CALLER PUSH20 0xFFFFFFFFFFFFFFFFFFFFFFFFFFFFFFFFFFFFFFFF AND PUSH20 0xFFFFFFFFFFFFFFFFFFFFFFFFFFFFFFFFFFFFFFFF AND DUP2 MSTORE PUSH1 0x20 ADD SWAP1 DUP2 MSTORE PUSH1 0x20 ADD PUSH0 KECCAK256 PUSH0 PUSH2 0x100 EXP DUP2 SLOAD DUP2 PUSH1 0xFF MUL NOT AND SWAP1 DUP4 ISZERO ISZERO MUL OR SWAP1 SSTORE POP PUSH32 0xD8D46ECF72F6103FF400E47D1B5FDFE248D4CA34A4ACD39F63FBE903C8F7E7BD DUP3 CALLER PUSH1 0x40 MLOAD PUSH2 0x3F2 SWAP3 SWAP2 SWAP1 PUSH2 0x110B JUMP JUMPDEST PUSH1 0x40 MLOAD DUP1 SWAP2 SUB SWAP1 LOG1 POP POP JUMP JUMPDEST PUSH1 0x1 PUSH1 0x20 MSTORE DUP1 PUSH0 MSTORE PUSH1 0x40 PUSH0 KECCAK256 PUSH0 SWAP2 POP SWAP1 POP DUP1 PUSH0 ADD DUP1 SLOAD PUSH2 0x41D SWAP1 PUSH2 0x100B JUMP JUMPDEST DUP1 PUSH1 0x1F ADD PUSH1 0x20 DUP1 SWAP2 DIV MUL PUSH1 0x20 ADD PUSH1 0x40 MLOAD SWAP1 DUP2 ADD PUSH1 0x40 MSTORE DUP1 SWAP3 SWAP2 SWAP1 DUP2 DUP2 MSTORE PUSH1 0x20 ADD DUP3 DUP1 SLOAD PUSH2 0x449 SWAP1 PUSH2 0x100B JUMP JUMPDEST DUP1 ISZERO PUSH2 0x494 JUMPI DUP1 PUSH1 0x1F LT PUSH2 0x46B JUMPI PUSH2 0x100 DUP1 DUP4 SLOAD DIV MUL DUP4 MSTORE SWAP2 PUSH1 0x20 ADD SWAP2 PUSH2 0x494 JUMP JUMPDEST DUP3 ADD SWAP2 SWAP1 PUSH0 MSTORE PUSH1 0x20 PUSH0 KECCAK256 SWAP1 JUMPDEST DUP2 SLOAD DUP2 MSTORE SWAP1 PUSH1 0x1 ADD SWAP1 PUSH1 0x20 ADD DUP1 DUP4 GT PUSH2 0x477 JUMPI DUP3 SWAP1 SUB PUSH1 0x1F AND DUP3 ADD SWAP2 JUMPDEST POP POP POP POP POP SWAP1 DUP1 PUSH1 0x1 ADD DUP1 SLOAD PUSH2 0x4A9 SWAP1 PUSH2 0x100B JUMP JUMPDEST DUP1 PUSH1 0x1F ADD PUSH1 0x20 DUP1 SWAP2 DIV MUL PUSH1 0x20 ADD PUSH1 0x40 MLOAD SWAP1 DUP2 ADD PUSH1 0x40 MSTORE DUP1 SWAP3 SWAP2 SWAP1 DUP2 DUP2 MSTORE PUSH1 0x20 ADD DUP3 DUP1 SLOAD PUSH2 0x4D5 SWAP1 PUSH2 0x100B JUMP JUMPDEST DUP1 ISZERO PUSH2 0x520 JUMPI DUP1 PUSH1 0x1F LT PUSH2 0x4F7 JUMPI PUSH2 0x100 DUP1 DUP4 SLOAD DIV MUL DUP4 MSTORE SWAP2 PUSH1 0x20 ADD SWAP2 PUSH2 0x520 JUMP JUMPDEST DUP3 ADD SWAP2 SWAP1 PUSH0 MSTORE PUSH1 0x20 PUSH0 KECCAK256 SWAP1 JUMPDEST DUP2 SLOAD DUP2 MSTORE SWAP1 PUSH1 0x1 ADD SWAP1 PUSH1 0x20 ADD DUP1 DUP4 GT PUSH2 0x503 JUMPI DUP3 SWAP1 SUB PUSH1 0x1F AND DUP3 ADD SWAP2 JUMPDEST POP POP POP POP POP SWAP1 POP DUP3 JUMP JUMPDEST PUSH0 DUP1 SLOAD SWAP1 PUSH2 0x100 EXP SWAP1 DIV PUSH20 0xFFFFFFFFFFFFFFFFFFFFFFFFFFFFFFFFFFFFFFFF AND PUSH20 0xFFFFFFFFFFFFFFFFFFFFFFFFFFFFFFFFFFFFFFFF AND CALLER PUSH20 0xFFFFFFFFFFFFFFFFFFFFFFFFFFFFFFFFFFFFFFFF AND EQ PUSH2 0x5B7 JUMPI PUSH1 0x40 MLOAD PUSH32 0x8C379A000000000000000000000000000000000000000000000000000000000 DUP2 MSTORE PUSH1 0x4 ADD PUSH2 0x5AE SWAP1 PUSH2 0x11A2 JUMP JUMPDEST PUSH1 0x40 MLOAD DUP1 SWAP2 SUB SWAP1 REVERT JUMPDEST PUSH0 PUSH1 0x14 SWAP1 SLOAD SWAP1 PUSH2 0x100 EXP SWAP1 DIV PUSH1 0xFF AND ISZERO PUSH2 0x606 JUMPI PUSH1 0x40 MLOAD PUSH32 0x8C379A000000000000000000000000000000000000000000000000000000000 DUP2 MSTORE PUSH1 0x4 ADD PUSH2 0x5FD SWAP1 PUSH2 0x120A JUMP JUMPDEST PUSH1 0x40 MLOAD DUP1 SWAP2 SUB SWAP1 REVERT JUMPDEST PUSH1 0x2 SLOAD DUP2 LT PUSH2 0x64A JUMPI PUSH1 0x40 MLOAD PUSH32 0x8C379A000000000000000000000000000000000000000000000000000000000 DUP2 MSTORE PUSH1 0x4 ADD PUSH2 0x641 SWAP1 PUSH2 0xFC0 JUMP JUMPDEST PUSH1 0x40 MLOAD DUP1 SWAP2 SUB SWAP1 REVERT JUMPDEST PUSH1 0x1 PUSH0 PUSH1 0x14 PUSH2 0x100 EXP DUP2 SLOAD DUP2 PUSH1 0xFF MUL NOT AND SWAP1 DUP4 ISZERO ISZERO MUL OR SWAP1 SSTORE POP PUSH32 0xCF33BABC496BB6DC2942B39CB7B75766BBBADF7DA50D176FF8C513E991140239 DUP2 PUSH1 0x40 MLOAD PUSH2 0x693 SWAP2 SWAP1 PUSH2 0xDE3 JUMP JUMPDEST PUSH1 0x40 MLOAD DUP1 SWAP2 SUB SWAP1 LOG1 POP JUMP JUMPDEST PUSH0 DUP1 SLOAD SWAP1 PUSH2 0x100 EXP SWAP1 DIV PUSH20 0xFFFFFFFFFFFFFFFFFFFFFFFFFFFFFFFFFFFFFFFF AND DUP2 JUMP JUMPDEST PUSH1 0x3 PUSH1 0x20 MSTORE DUP1 PUSH0 MSTORE PUSH1 0x40 PUSH0 KECCAK256 PUSH0 SWAP2 POP SWAP1 POP SLOAD DUP2 JUMP JUMPDEST PUSH0 PUSH1 0x14 SWAP1 SLOAD SWAP1 PUSH2 0x100 EXP SWAP1 DIV PUSH1 0xFF AND DUP2 JUMP JUMPDEST PUSH0 DUP1 SLOAD SWAP1 PUSH2 0x100 EXP SWAP1 DIV PUSH20 0xFFFFFFFFFFFFFFFFFFFFFFFFFFFFFFFFFFFFFFFF AND PUSH20 0xFFFFFFFFFFFFFFFFFFFFFFFFFFFFFFFFFFFFFFFF AND CALLER PUSH20 0xFFFFFFFFFFFFFFFFFFFFFFFFFFFFFFFFFFFFFFFF AND EQ PUSH2 0x775 JUMPI PUSH1 0x40 MLOAD PUSH32 0x8C379A000000000000000000000000000000000000000000000000000000000 DUP2 MSTORE PUSH1 0x4 ADD PUSH2 0x76C SWAP1 PUSH2 0x11A2 JUMP JUMPDEST PUSH1 0x40 MLOAD DUP1 SWAP2 SUB SWAP1 REVERT JUMPDEST PUSH0 PUSH1 0x2 PUSH0 DUP2 SLOAD DUP1 SWAP3 SWAP2 SWAP1 PUSH2 0x788 SWAP1 PUSH2 0x1255 JUMP JUMPDEST SWAP2 SWAP1 POP SSTORE SWAP1 POP PUSH0 PUSH1 0x1 PUSH0 DUP4 DUP2 MSTORE PUSH1 0x20 ADD SWAP1 DUP2 MSTORE PUSH1 0x20 ADD PUSH0 KECCAK256 SWAP1 POP DUP6 DUP6 DUP3 PUSH0 ADD SWAP2 DUP3 PUSH2 0x7B4 SWAP3 SWAP2 SWAP1 PUSH2 0x1470 JUMP JUMPDEST POP DUP4 DUP4 DUP3 PUSH1 0x1 ADD SWAP2 DUP3 PUSH2 0x7C8 SWAP3 SWAP2 SWAP1 PUSH2 0x1470 JUMP JUMPDEST POP PUSH32 0x291E52A7839D5BCF62927959EBE247C310DCF9A518AAD0BE9CC3DE6F3F6AB4F0 DUP3 DUP8 DUP8 DUP8 DUP8 PUSH1 0x40 MLOAD PUSH2 0x800 SWAP6 SWAP5 SWAP4 SWAP3 SWAP2 SWAP1 PUSH2 0x1577 JUMP JUMPDEST PUSH1 0x40 MLOAD DUP1 SWAP2 SUB SWAP1 LOG1 POP POP POP POP POP POP JUMP JUMPDEST PUSH0 DUP1 SLOAD SWAP1 PUSH2 0x100 EXP SWAP1 DIV PUSH20 0xFFFFFFFFFFFFFFFFFFFFFFFFFFFFFFFFFFFFFFFF AND PUSH20 0xFFFFFFFFFFFFFFFFFFFFFFFFFFFFFFFFFFFFFFFF AND CALLER PUSH20 0xFFFFFFFFFFFFFFFFFFFFFFFFFFFFFFFFFFFFFFFF AND EQ PUSH2 0x89D JUMPI PUSH1 0x40 MLOAD PUSH32 0x8C379A000000000000000000000000000000000000000000000000000000000 DUP2 MSTORE PUSH1 0x4 ADD PUSH2 0x894 SWAP1 PUSH2 0x11A2 JUMP JUMPDEST PUSH1 0x40 MLOAD DUP1 SWAP2 SUB SWAP1 REVERT JUMPDEST DUP1 PUSH0 DUP1 PUSH2 0x100 EXP DUP2 SLOAD DUP2 PUSH20 0xFFFFFFFFFFFFFFFFFFFFFFFFFFFFFFFFFFFFFFFF MUL NOT AND SWAP1 DUP4 PUSH20 0xFFFFFFFFFFFFFFFFFFFFFFFFFFFFFFFFFFFFFFFF AND MUL OR SWAP1 SSTORE POP POP JUMP JUMPDEST PUSH0 DUP1 SLOAD SWAP1 PUSH2 0x100 EXP SWAP1 DIV PUSH20 0xFFFFFFFFFFFFFFFFFFFFFFFFFFFFFFFFFFFFFFFF AND PUSH20 0xFFFFFFFFFFFFFFFFFFFFFFFFFFFFFFFFFFFFFFFF AND CALLER PUSH20 0xFFFFFFFFFFFFFFFFFFFFFFFFFFFFFFFFFFFFFFFF AND EQ PUSH2 0x96C JUMPI PUSH1 0x40 MLOAD PUSH32 0x8C379A000000000000000000000000000000000000000000000000000000000 DUP2 MSTORE PUSH1 0x4 ADD PUSH2 0x963 SWAP1 PUSH2 0x11A2 JUMP JUMPDEST PUSH1 0x40 MLOAD DUP1 SWAP2 SUB SWAP1 REVERT JUMPDEST PUSH0 PUSH1 0x14 SWAP1 SLOAD SWAP1 PUSH2 0x100 EXP SWAP1 DIV PUSH1 0xFF AND PUSH2 0x9BA JUMPI PUSH1 0x40 MLOAD PUSH32 0x8C379A000000000000000000000000000000000000000000000000000000000 DUP2 MSTORE PUSH1 0x4 ADD PUSH2 0x9B1 SWAP1 PUSH2 0xF58 JUMP JUMPDEST PUSH1 0x40 MLOAD DUP1 SWAP2 SUB SWAP1 REVERT JUMPDEST PUSH1 0x2 SLOAD DUP2 LT PUSH2 0x9FE JUMPI PUSH1 0x40 MLOAD PUSH32 0x8C379A000000000000000000000000000000000000000000000000000000000 DUP2 MSTORE PUSH1 0x4 ADD PUSH2 0x9F5 SWAP1 PUSH2 0xFC0 JUMP JUMPDEST PUSH1 0x40 MLOAD DUP1 SWAP2 SUB SWAP1 REVERT JUMPDEST PUSH0 PUSH1 0x1 PUSH0 DUP4 DUP2 MSTORE PUSH1 0x20 ADD SWAP1 DUP2 MSTORE PUSH1 0x20 ADD PUSH0 KECCAK256 SWAP1 POP PUSH0 DUP2 PUSH0 ADD DUP1 SLOAD PUSH2 0xA21 SWAP1 PUSH2 0x100B JUMP JUMPDEST SWAP1 POP GT PUSH2 0xA63 JUMPI PUSH1 0x40 MLOAD PUSH32 0x8C379A000000000000000000000000000000000000000000000000000000000 DUP2 MSTORE PUSH1 0x4 ADD PUSH2 0xA5A SWAP1 PUSH2 0x1085 JUMP JUMPDEST PUSH1 0x40 MLOAD DUP1 SWAP2 SUB SWAP1 REVERT JUMPDEST PUSH0 DUP1 PUSH1 0x14 PUSH2 0x100 EXP DUP2 SLOAD DUP2 PUSH1 0xFF MUL NOT AND SWAP1 DUP4 ISZERO ISZERO MUL OR SWAP1 SSTORE POP PUSH32 0x8E9B46A70B3967BC9EA56CA61732C363A191FAC88AE3BA011F4E030711C90117 DUP3 PUSH1 0x40 MLOAD PUSH2 0xAAB SWAP2 SWAP1 PUSH2 0xDE3 JUMP JUMPDEST PUSH1 0x40 MLOAD DUP1 SWAP2 SUB SWAP1 LOG1 PUSH2 0xABC DUP3 PUSH2 0xAC6 JUMP JUMPDEST POP POP JUMP JUMPDEST PUSH1 0x2 SLOAD DUP2 JUMP JUMPDEST PUSH0 PUSH1 0x1 PUSH0 DUP4 DUP2 MSTORE PUSH1 0x20 ADD SWAP1 DUP2 MSTORE PUSH1 0x20 ADD PUSH0 KECCAK256 SWAP1 POP PUSH0 PUSH1 0xA SWAP1 POP PUSH0 JUMPDEST PUSH1 0x2 SLOAD DUP2 LT ISZERO PUSH2 0xBFC JUMPI DUP3 PUSH1 0x2 ADD PUSH0 DUP1 PUSH0 SWAP1 SLOAD SWAP1 PUSH2 0x100 EXP SWAP1 DIV PUSH20 0xFFFFFFFFFFFFFFFFFFFFFFFFFFFFFFFFFFFFFFFF AND PUSH20 0xFFFFFFFFFFFFFFFFFFFFFFFFFFFFFFFFFFFFFFFF AND PUSH20 0xFFFFFFFFFFFFFFFFFFFFFFFFFFFFFFFFFFFFFFFF AND DUP2 MSTORE PUSH1 0x20 ADD SWAP1 DUP2 MSTORE PUSH1 0x20 ADD PUSH0 KECCAK256 PUSH0 SWAP1 SLOAD SWAP1 PUSH2 0x100 EXP SWAP1 DIV PUSH1 0xFF AND ISZERO PUSH2 0xBE9 JUMPI DUP2 PUSH1 0x3 PUSH0 CALLER PUSH20 0xFFFFFFFFFFFFFFFFFFFFFFFFFFFFFFFFFFFFFFFF AND PUSH20 0xFFFFFFFFFFFFFFFFFFFFFFFFFFFFFFFFFFFFFFFF AND DUP2 MSTORE PUSH1 0x20 ADD SWAP1 DUP2 MSTORE PUSH1 0x20 ADD PUSH0 KECCAK256 PUSH0 DUP3 DUP3 SLOAD PUSH2 0xBA8 SWAP2 SWAP1 PUSH2 0x15BE JUMP JUMPDEST SWAP3 POP POP DUP2 SWAP1 SSTORE POP PUSH32 0x6177F4110771217C72937D51F3A73915F2C714A6B98507E17EEA7A186136A24A CALLER DUP4 PUSH1 0x40 MLOAD PUSH2 0xBE0 SWAP3 SWAP2 SWAP1 PUSH2 0x15F1 JUMP JUMPDEST PUSH1 0x40 MLOAD DUP1 SWAP2 SUB SWAP1 LOG1 JUMPDEST DUP1 DUP1 PUSH2 0xBF4 SWAP1 PUSH2 0x1255 JUMP JUMPDEST SWAP2 POP POP PUSH2 0xAE1 JUMP JUMPDEST POP POP POP POP JUMP JUMPDEST PUSH0 DUP1 REVERT JUMPDEST PUSH0 DUP1 REVERT JUMPDEST PUSH0 DUP2 SWAP1 POP SWAP2 SWAP1 POP JUMP JUMPDEST PUSH2 0xC1C DUP2 PUSH2 0xC0A JUMP JUMPDEST DUP2 EQ PUSH2 0xC26 JUMPI PUSH0 DUP1 REVERT JUMPDEST POP JUMP JUMPDEST PUSH0 DUP2 CALLDATALOAD SWAP1 POP PUSH2 0xC37 DUP2 PUSH2 0xC13 JUMP JUMPDEST SWAP3 SWAP2 POP POP JUMP JUMPDEST PUSH0 PUSH1 0x20 DUP3 DUP5 SUB SLT ISZERO PUSH2 0xC52 JUMPI PUSH2 0xC51 PUSH2 0xC02 JUMP JUMPDEST JUMPDEST PUSH0 PUSH2 0xC5F DUP5 DUP3 DUP6 ADD PUSH2 0xC29 JUMP JUMPDEST SWAP2 POP POP SWAP3 SWAP2 POP POP JUMP JUMPDEST PUSH0 DUP2 MLOAD SWAP1 POP SWAP2 SWAP1 POP JUMP JUMPDEST PUSH0 DUP3 DUP3 MSTORE PUSH1 0x20 DUP3 ADD SWAP1 POP SWAP3 SWAP2 POP POP JUMP JUMPDEST PUSH0 JUMPDEST DUP4 DUP2 LT ISZERO PUSH2 0xC9F JUMPI DUP1 DUP3 ADD MLOAD DUP2 DUP5 ADD MSTORE PUSH1 0x20 DUP2 ADD SWAP1 POP PUSH2 0xC84 JUMP JUMPDEST PUSH0 DUP5 DUP5 ADD MSTORE POP POP POP POP JUMP JUMPDEST PUSH0 PUSH1 0x1F NOT PUSH1 0x1F DUP4 ADD AND SWAP1 POP SWAP2 SWAP1 POP JUMP JUMPDEST PUSH0 PUSH2 0xCC4 DUP3 PUSH2 0xC68 JUMP JUMPDEST PUSH2 0xCCE DUP2 DUP6 PUSH2 0xC72 JUMP JUMPDEST SWAP4 POP PUSH2 0xCDE DUP2 DUP6 PUSH1 0x20 DUP7 ADD PUSH2 0xC82 JUMP JUMPDEST PUSH2 0xCE7 DUP2 PUSH2 0xCAA JUMP JUMPDEST DUP5 ADD SWAP2 POP POP SWAP3 SWAP2 POP POP JUMP JUMPDEST PUSH0 PUSH1 0x40 DUP3 ADD SWAP1 POP DUP2 DUP2 SUB PUSH0 DUP4 ADD MSTORE PUSH2 0xD0A DUP2 DUP6 PUSH2 0xCBA JUMP JUMPDEST SWAP1 POP DUP2 DUP2 SUB PUSH1 0x20 DUP4 ADD MSTORE PUSH2 0xD1E DUP2 DUP5 PUSH2 0xCBA JUMP JUMPDEST SWAP1 POP SWAP4 SWAP3 POP POP POP JUMP JUMPDEST PUSH0 PUSH20 0xFFFFFFFFFFFFFFFFFFFFFFFFFFFFFFFFFFFFFFFF DUP3 AND SWAP1 POP SWAP2 SWAP1 POP JUMP JUMPDEST PUSH0 PUSH2 0xD50 DUP3 PUSH2 0xD27 JUMP JUMPDEST SWAP1 POP SWAP2 SWAP1 POP JUMP JUMPDEST PUSH2 0xD60 DUP2 PUSH2 0xD46 JUMP JUMPDEST DUP3 MSTORE POP POP JUMP JUMPDEST PUSH0 PUSH1 0x20 DUP3 ADD SWAP1 POP PUSH2 0xD79 PUSH0 DUP4 ADD DUP5 PUSH2 0xD57 JUMP JUMPDEST SWAP3 SWAP2 POP POP JUMP JUMPDEST PUSH2 0xD88 DUP2 PUSH2 0xD46 JUMP JUMPDEST DUP2 EQ PUSH2 0xD92 JUMPI PUSH0 DUP1 REVERT JUMPDEST POP JUMP JUMPDEST PUSH0 DUP2 CALLDATALOAD SWAP1 POP PUSH2 0xDA3 DUP2 PUSH2 0xD7F JUMP JUMPDEST SWAP3 SWAP2 POP POP JUMP JUMPDEST PUSH0 PUSH1 0x20 DUP3 DUP5 SUB SLT ISZERO PUSH2 0xDBE JUMPI PUSH2 0xDBD PUSH2 0xC02 JUMP JUMPDEST JUMPDEST PUSH0 PUSH2 0xDCB DUP5 DUP3 DUP6 ADD PUSH2 0xD95 JUMP JUMPDEST SWAP2 POP POP SWAP3 SWAP2 POP POP JUMP JUMPDEST PUSH2 0xDDD DUP2 PUSH2 0xC0A JUMP JUMPDEST DUP3 MSTORE POP POP JUMP JUMPDEST PUSH0 PUSH1 0x20 DUP3 ADD SWAP1 POP PUSH2 0xDF6 PUSH0 DUP4 ADD DUP5 PUSH2 0xDD4 JUMP JUMPDEST SWAP3 SWAP2 POP POP JUMP JUMPDEST PUSH0 DUP2 ISZERO ISZERO SWAP1 POP SWAP2 SWAP1 POP JUMP JUMPDEST PUSH2 0xE10 DUP2 PUSH2 0xDFC JUMP JUMPDEST DUP3 MSTORE POP POP JUMP JUMPDEST PUSH0 PUSH1 0x20 DUP3 ADD SWAP1 POP PUSH2 0xE29 PUSH0 DUP4 ADD DUP5 PUSH2 0xE07 JUMP JUMPDEST SWAP3 SWAP2 POP POP JUMP JUMPDEST PUSH0 DUP1 REVERT JUMPDEST PUSH0 DUP1 REVERT JUMPDEST PUSH0 DUP1 REVERT JUMPDEST PUSH0 DUP1 DUP4 PUSH1 0x1F DUP5 ADD SLT PUSH2 0xE50 JUMPI PUSH2 0xE4F PUSH2 0xE2F JUMP JUMPDEST JUMPDEST DUP3 CALLDATALOAD SWAP1 POP PUSH8 0xFFFFFFFFFFFFFFFF DUP2 GT ISZERO PUSH2 0xE6D JUMPI PUSH2 0xE6C PUSH2 0xE33 JUMP JUMPDEST JUMPDEST PUSH1 0x20 DUP4 ADD SWAP2 POP DUP4 PUSH1 0x1 DUP3 MUL DUP4 ADD GT ISZERO PUSH2 0xE89 JUMPI PUSH2 0xE88 PUSH2 0xE37 JUMP JUMPDEST JUMPDEST SWAP3 POP SWAP3 SWAP1 POP JUMP JUMPDEST PUSH0 DUP1 PUSH0 DUP1 PUSH1 0x40 DUP6 DUP8 SUB SLT ISZERO PUSH2 0xEA8 JUMPI PUSH2 0xEA7 PUSH2 0xC02 JUMP JUMPDEST JUMPDEST PUSH0 DUP6 ADD CALLDATALOAD PUSH8 0xFFFFFFFFFFFFFFFF DUP2 GT ISZERO PUSH2 0xEC5 JUMPI PUSH2 0xEC4 PUSH2 0xC06 JUMP JUMPDEST JUMPDEST PUSH2 0xED1 DUP8 DUP3 DUP9 ADD PUSH2 0xE3B JUMP JUMPDEST SWAP5 POP SWAP5 POP POP PUSH1 0x20 DUP6 ADD CALLDATALOAD PUSH8 0xFFFFFFFFFFFFFFFF DUP2 GT ISZERO PUSH2 0xEF4 JUMPI PUSH2 0xEF3 PUSH2 0xC06 JUMP JUMPDEST JUMPDEST PUSH2 0xF00 DUP8 DUP3 DUP9 ADD PUSH2 0xE3B JUMP JUMPDEST SWAP3 POP SWAP3 POP POP SWAP3 SWAP6 SWAP2 SWAP5 POP SWAP3 POP JUMP JUMPDEST PUSH32 0x566F74696E67206973206E6F74206F70656E2E00000000000000000000000000 PUSH0 DUP3 ADD MSTORE POP JUMP JUMPDEST PUSH0 PUSH2 0xF42 PUSH1 0x13 DUP4 PUSH2 0xC72 JUMP JUMPDEST SWAP2 POP PUSH2 0xF4D DUP3 PUSH2 0xF0E JUMP JUMPDEST PUSH1 0x20 DUP3 ADD SWAP1 POP SWAP2 SWAP1 POP JUMP JUMPDEST PUSH0 PUSH1 0x20 DUP3 ADD SWAP1 POP DUP2 DUP2 SUB PUSH0 DUP4 ADD MSTORE PUSH2 0xF6F DUP2 PUSH2 0xF36 JUMP JUMPDEST SWAP1 POP SWAP2 SWAP1 POP JUMP JUMPDEST PUSH32 0x496E76616C696420746F7069632049442E000000000000000000000000000000 PUSH0 DUP3 ADD MSTORE POP JUMP JUMPDEST PUSH0 PUSH2 0xFAA PUSH1 0x11 DUP4 PUSH2 0xC72 JUMP JUMPDEST SWAP2 POP PUSH2 0xFB5 DUP3 PUSH2 0xF76 JUMP JUMPDEST PUSH1 0x20 DUP3 ADD SWAP1 POP SWAP2 SWAP1 POP JUMP JUMPDEST PUSH0 PUSH1 0x20 DUP3 ADD SWAP1 POP DUP2 DUP2 SUB PUSH0 DUP4 ADD MSTORE PUSH2 0xFD7 DUP2 PUSH2 0xF9E JUMP JUMPDEST SWAP1 POP SWAP2 SWAP1 POP JUMP JUMPDEST PUSH32 0x4E487B7100000000000000000000000000000000000000000000000000000000 PUSH0 MSTORE PUSH1 0x22 PUSH1 0x4 MSTORE PUSH1 0x24 PUSH0 REVERT JUMPDEST PUSH0 PUSH1 0x2 DUP3 DIV SWAP1 POP PUSH1 0x1 DUP3 AND DUP1 PUSH2 0x1022 JUMPI PUSH1 0x7F DUP3 AND SWAP2 POP JUMPDEST PUSH1 0x20 DUP3 LT DUP2 SUB PUSH2 0x1035 JUMPI PUSH2 0x1034 PUSH2 0xFDE JUMP JUMPDEST JUMPDEST POP SWAP2 SWAP1 POP JUMP JUMPDEST PUSH32 0x546F70696320646F6573206E6F742065786973742E0000000000000000000000 PUSH0 DUP3 ADD MSTORE POP JUMP JUMPDEST PUSH0 PUSH2 0x106F PUSH1 0x15 DUP4 PUSH2 0xC72 JUMP JUMPDEST SWAP2 POP PUSH2 0x107A DUP3 PUSH2 0x103B JUMP JUMPDEST PUSH1 0x20 DUP3 ADD SWAP1 POP SWAP2 SWAP1 POP JUMP JUMPDEST PUSH0 PUSH1 0x20 DUP3 ADD SWAP1 POP DUP2 DUP2 SUB PUSH0 DUP4 ADD MSTORE PUSH2 0x109C DUP2 PUSH2 0x1063 JUMP JUMPDEST SWAP1 POP SWAP2 SWAP1 POP JUMP JUMPDEST PUSH32 0x416C726561647920766F74656420666F72207468697320746F7069632E000000 PUSH0 DUP3 ADD MSTORE POP JUMP JUMPDEST PUSH0 PUSH2 0x10D7 PUSH1 0x1D DUP4 PUSH2 0xC72 JUMP JUMPDEST SWAP2 POP PUSH2 0x10E2 DUP3 PUSH2 0x10A3 JUMP JUMPDEST PUSH1 0x20 DUP3 ADD SWAP1 POP SWAP2 SWAP1 POP JUMP JUMPDEST PUSH0 PUSH1 0x20 DUP3 ADD SWAP1 POP DUP2 DUP2 SUB PUSH0 DUP4 ADD MSTORE PUSH2 0x1104 DUP2 PUSH2 0x10CB JUMP JUMPDEST SWAP1 POP SWAP2 SWAP1 POP JUMP JUMPDEST PUSH0 PUSH1 0x40 DUP3 ADD SWAP1 POP PUSH2 0x111E PUSH0 DUP4 ADD DUP6 PUSH2 0xDD4 JUMP JUMPDEST PUSH2 0x112B PUSH1 0x20 DUP4 ADD DUP5 PUSH2 0xD57 JUMP JUMPDEST SWAP4 SWAP3 POP POP POP JUMP JUMPDEST PUSH32 0x4F6E6C79206D616E616765722063616E20706572666F726D2074686973206163 PUSH0 DUP3 ADD MSTORE PUSH32 0x74696F6E2E000000000000000000000000000000000000000000000000000000 PUSH1 0x20 DUP3 ADD MSTORE POP JUMP JUMPDEST PUSH0 PUSH2 0x118C PUSH1 0x25 DUP4 PUSH2 0xC72 JUMP JUMPDEST SWAP2 POP PUSH2 0x1197 DUP3 PUSH2 0x1132 JUMP JUMPDEST PUSH1 0x40 DUP3 ADD SWAP1 POP SWAP2 SWAP1 POP JUMP JUMPDEST PUSH0 PUSH1 0x20 DUP3 ADD SWAP1 POP DUP2 DUP2 SUB PUSH0 DUP4 ADD MSTORE PUSH2 0x11B9 DUP2 PUSH2 0x1180 JUMP JUMPDEST SWAP1 POP SWAP2 SWAP1 POP JUMP JUMPDEST PUSH32 0x566F74696E6720697320616C7265616479206F70656E2E000000000000000000 PUSH0 DUP3 ADD MSTORE POP JUMP JUMPDEST PUSH0 PUSH2 0x11F4 PUSH1 0x17 DUP4 PUSH2 0xC72 JUMP JUMPDEST SWAP2 POP PUSH2 0x11FF DUP3 PUSH2 0x11C0 JUMP JUMPDEST PUSH1 0x20 DUP3 ADD SWAP1 POP SWAP2 SWAP1 POP JUMP JUMPDEST PUSH0 PUSH1 0x20 DUP3 ADD SWAP1 POP DUP2 DUP2 SUB PUSH0 DUP4 ADD MSTORE PUSH2 0x1221 DUP2 PUSH2 0x11E8 JUMP JUMPDEST SWAP1 POP SWAP2 SWAP1 POP JUMP JUMPDEST PUSH32 0x4E487B7100000000000000000000000000000000000000000000000000000000 PUSH0 MSTORE PUSH1 0x11 PUSH1 0x4 MSTORE PUSH1 0x24 PUSH0 REVERT JUMPDEST PUSH0 PUSH2 0x125F DUP3 PUSH2 0xC0A JUMP JUMPDEST SWAP2 POP PUSH32 0xFFFFFFFFFFFFFFFFFFFFFFFFFFFFFFFFFFFFFFFFFFFFFFFFFFFFFFFFFFFFFFFF DUP3 SUB PUSH2 0x1291 JUMPI PUSH2 0x1290 PUSH2 0x1228 JUMP JUMPDEST JUMPDEST PUSH1 0x1 DUP3 ADD SWAP1 POP SWAP2 SWAP1 POP JUMP JUMPDEST PUSH0 DUP3 SWAP1 POP SWAP3 SWAP2 POP POP JUMP JUMPDEST PUSH32 0x4E487B7100000000000000000000000000000000000000000000000000000000 PUSH0 MSTORE PUSH1 0x41 PUSH1 0x4 MSTORE PUSH1 0x24 PUSH0 REVERT JUMPDEST PUSH0 DUP2 SWAP1 POP DUP2 PUSH0 MSTORE PUSH1 0x20 PUSH0 KECCAK256 SWAP1 POP SWAP2 SWAP1 POP JUMP JUMPDEST PUSH0 PUSH1 0x20 PUSH1 0x1F DUP4 ADD DIV SWAP1 POP SWAP2 SWAP1 POP JUMP JUMPDEST PUSH0 DUP3 DUP3 SHL SWAP1 POP SWAP3 SWAP2 POP POP JUMP JUMPDEST PUSH0 PUSH1 0x8 DUP4 MUL PUSH2 0x132F PUSH32 0xFFFFFFFFFFFFFFFFFFFFFFFFFFFFFFFFFFFFFFFFFFFFFFFFFFFFFFFFFFFFFFFF DUP3 PUSH2 0x12F4 JUMP JUMPDEST PUSH2 0x1339 DUP7 DUP4 PUSH2 0x12F4 JUMP JUMPDEST SWAP6 POP DUP1 NOT DUP5 AND SWAP4 POP DUP1 DUP7 AND DUP5 OR SWAP3 POP POP POP SWAP4 SWAP3 POP POP POP JUMP JUMPDEST PUSH0 DUP2 SWAP1 POP SWAP2 SWAP1 POP JUMP JUMPDEST PUSH0 PUSH2 0x1374 PUSH2 0x136F PUSH2 0x136A DUP5 PUSH2 0xC0A JUMP JUMPDEST PUSH2 0x1351 JUMP JUMPDEST PUSH2 0xC0A JUMP JUMPDEST SWAP1 POP SWAP2 SWAP1 POP JUMP JUMPDEST PUSH0 DUP2 SWAP1 POP SWAP2 SWAP1 POP JUMP JUMPDEST PUSH2 0x138D DUP4 PUSH2 0x135A JUMP JUMPDEST PUSH2 0x13A1 PUSH2 0x1399 DUP3 PUSH2 0x137B JUMP JUMPDEST DUP5 DUP5 SLOAD PUSH2 0x1300 JUMP JUMPDEST DUP3 SSTORE POP POP POP POP JUMP JUMPDEST PUSH0 SWAP1 JUMP JUMPDEST PUSH2 0x13B5 PUSH2 0x13A9 JUMP JUMPDEST PUSH2 0x13C0 DUP2 DUP5 DUP5 PUSH2 0x1384 JUMP JUMPDEST POP POP POP JUMP JUMPDEST JUMPDEST DUP2 DUP2 LT ISZERO PUSH2 0x13E3 JUMPI PUSH2 0x13D8 PUSH0 DUP3 PUSH2 0x13AD JUMP JUMPDEST PUSH1 0x1 DUP2 ADD SWAP1 POP PUSH2 0x13C6 JUMP JUMPDEST POP POP JUMP JUMPDEST PUSH1 0x1F DUP3 GT ISZERO PUSH2 0x1428 JUMPI PUSH2 0x13F9 DUP2 PUSH2 0x12D3 JUMP JUMPDEST PUSH2 0x1402 DUP5 PUSH2 0x12E5 JUMP JUMPDEST DUP2 ADD PUSH1 0x20 DUP6 LT ISZERO PUSH2 0x1411 JUMPI DUP2 SWAP1 POP JUMPDEST PUSH2 0x1425 PUSH2 0x141D DUP6 PUSH2 0x12E5 JUMP JUMPDEST DUP4 ADD DUP3 PUSH2 0x13C5 JUMP JUMPDEST POP POP JUMPDEST POP POP POP JUMP JUMPDEST PUSH0 DUP3 DUP3 SHR SWAP1 POP SWAP3 SWAP2 POP POP JUMP JUMPDEST PUSH0 PUSH2 0x1448 PUSH0 NOT DUP5 PUSH1 0x8 MUL PUSH2 0x142D JUMP JUMPDEST NOT DUP1 DUP4 AND SWAP2 POP POP SWAP3 SWAP2 POP POP JUMP JUMPDEST PUSH0 PUSH2 0x1460 DUP4 DUP4 PUSH2 0x1439 JUMP JUMPDEST SWAP2 POP DUP3 PUSH1 0x2 MUL DUP3 OR SWAP1 POP SWAP3 SWAP2 POP POP JUMP JUMPDEST PUSH2 0x147A DUP4 DUP4 PUSH2 0x129C JUMP JUMPDEST PUSH8 0xFFFFFFFFFFFFFFFF DUP2 GT ISZERO PUSH2 0x1493 JUMPI PUSH2 0x1492 PUSH2 0x12A6 JUMP JUMPDEST JUMPDEST PUSH2 0x149D DUP3 SLOAD PUSH2 0x100B JUMP JUMPDEST PUSH2 0x14A8 DUP3 DUP3 DUP6 PUSH2 0x13E7 JUMP JUMPDEST PUSH0 PUSH1 0x1F DUP4 GT PUSH1 0x1 DUP2 EQ PUSH2 0x14D5 JUMPI PUSH0 DUP5 ISZERO PUSH2 0x14C3 JUMPI DUP3 DUP8 ADD CALLDATALOAD SWAP1 POP JUMPDEST PUSH2 0x14CD DUP6 DUP3 PUSH2 0x1455 JUMP JUMPDEST DUP7 SSTORE POP PUSH2 0x1534 JUMP JUMPDEST PUSH1 0x1F NOT DUP5 AND PUSH2 0x14E3 DUP7 PUSH2 0x12D3 JUMP JUMPDEST PUSH0 JUMPDEST DUP3 DUP2 LT ISZERO PUSH2 0x150A JUMPI DUP5 DUP10 ADD CALLDATALOAD DUP3 SSTORE PUSH1 0x1 DUP3 ADD SWAP2 POP PUSH1 0x20 DUP6 ADD SWAP5 POP PUSH1 0x20 DUP2 ADD SWAP1 POP PUSH2 0x14E5 JUMP JUMPDEST DUP7 DUP4 LT ISZERO PUSH2 0x1527 JUMPI DUP5 DUP10 ADD CALLDATALOAD PUSH2 0x1523 PUSH1 0x1F DUP10 AND DUP3 PUSH2 0x1439 JUMP JUMPDEST DUP4 SSTORE POP JUMPDEST PUSH1 0x1 PUSH1 0x2 DUP9 MUL ADD DUP9 SSTORE POP POP POP JUMPDEST POP POP POP POP POP POP POP JUMP JUMPDEST DUP3 DUP2 DUP4 CALLDATACOPY PUSH0 DUP4 DUP4 ADD MSTORE POP POP POP JUMP JUMPDEST PUSH0 PUSH2 0x1556 DUP4 DUP6 PUSH2 0xC72 JUMP JUMPDEST SWAP4 POP PUSH2 0x1563 DUP4 DUP6 DUP5 PUSH2 0x153D JUMP JUMPDEST PUSH2 0x156C DUP4 PUSH2 0xCAA JUMP JUMPDEST DUP5 ADD SWAP1 POP SWAP4 SWAP3 POP POP POP JUMP JUMPDEST PUSH0 PUSH1 0x60 DUP3 ADD SWAP1 POP PUSH2 0x158A PUSH0 DUP4 ADD DUP9 PUSH2 0xDD4 JUMP JUMPDEST DUP2 DUP2 SUB PUSH1 0x20 DUP4 ADD MSTORE PUSH2 0x159D DUP2 DUP7 DUP9 PUSH2 0x154B JUMP JUMPDEST SWAP1 POP DUP2 DUP2 SUB PUSH1 0x40 DUP4 ADD MSTORE PUSH2 0x15B2 DUP2 DUP5 DUP7 PUSH2 0x154B JUMP JUMPDEST SWAP1 POP SWAP7 SWAP6 POP POP POP POP POP POP JUMP JUMPDEST PUSH0 PUSH2 0x15C8 DUP3 PUSH2 0xC0A JUMP JUMPDEST SWAP2 POP PUSH2 0x15D3 DUP4 PUSH2 0xC0A JUMP JUMPDEST SWAP3 POP DUP3 DUP3 ADD SWAP1 POP DUP1 DUP3 GT ISZERO PUSH2 0x15EB JUMPI PUSH2 0x15EA PUSH2 0x1228 JUMP JUMPDEST JUMPDEST SWAP3 SWAP2 POP POP JUMP JUMPDEST PUSH0 PUSH1 0x40 DUP3 ADD SWAP1 POP PUSH2 0x1604 PUSH0 DUP4 ADD DUP6 PUSH2 0xD57 JUMP JUMPDEST PUSH2 0x1611 PUSH1 0x20 DUP4 ADD DUP5 PUSH2 0xDD4 JUMP JUMPDEST SWAP4 SWAP3 POP POP POP JUMP INVALID LOG2 PUSH5 0x6970667358 0x22 SLT KECCAK256 STATICCALL SHL 0xE3 0x2C 0x4B 0xB6 XOR SWAP6 PREVRANDAO JUMP SHL 0xAB 0x27 0xDD 0xEF 0xCB SWAP14 0xF BASEFEE SWAP14 DUP2 0x26 0xC8 0xAE 0xBE XOR 0xAF SSTORE DUP5 DUP9 MOD 0xDA PUSH5 0x736F6C6343 STOP ADDMOD EQ STOP CALLER "
				},
				"gasEstimates": {
					"creation": {
						"codeDepositCost": "1142000",
						"executionCost": "25451",
						"totalCost": "1167451"
					},
					"external": {
						"addTopic(string,string)": "infinite",
						"closeVoting(uint256)": "infinite",
						"manager()": "2572",
						"scores(address)": "2891",
						"setManager(address)": "26925",
						"startVoting(uint256)": "infinite",
						"topicCount()": "2513",
						"topics(uint256)": "infinite",
						"vote(uint256)": "infinite",
						"votingOpen()": "2516"
					},
					"internal": {
						"settleVotes(uint256)": "infinite"
					}
				},
				"methodIdentifiers": {
					"addTopic(string,string)": "c1e6adfd",
					"closeVoting(uint256)": "d2111a72",
					"manager()": "481c6a75",
					"scores(address)": "76dd110f",
					"setManager(address)": "d0ebdbe7",
					"startVoting(uint256)": "3d2f5bda",
					"topicCount()": "f315f553",
					"topics(uint256)": "18d9adab",
					"vote(uint256)": "0121b93f",
					"votingOpen()": "a95824b4"
				}
			},
			"storageLayout": {
				"storage": [
					{
						"astId": 3,
						"contract": "VotingContract.sol:VotingContract",
						"label": "manager",
						"offset": 0,
						"slot": "0",
						"type": "t_address"
					},
					{
						"astId": 5,
						"contract": "VotingContract.sol:VotingContract",
						"label": "votingOpen",
						"offset": 20,
						"slot": "0",
						"type": "t_bool"
					},
					{
						"astId": 19,
						"contract": "VotingContract.sol:VotingContract",
						"label": "topics",
						"offset": 0,
						"slot": "1",
						"type": "t_mapping(t_uint256,t_struct(Topic)14_storage)"
					},
					{
						"astId": 21,
						"contract": "VotingContract.sol:VotingContract",
						"label": "topicCount",
						"offset": 0,
						"slot": "2",
						"type": "t_uint256"
					},
					{
						"astId": 25,
						"contract": "VotingContract.sol:VotingContract",
						"label": "scores",
						"offset": 0,
						"slot": "3",
						"type": "t_mapping(t_address,t_uint256)"
					}
				],
				"types": {
					"t_address": {
						"encoding": "inplace",
						"label": "address",
						"numberOfBytes": "20"
					},
					"t_bool": {
						"encoding": "inplace",
						"label": "bool",
						"numberOfBytes": "1"
					},
					"t_mapping(t_address,t_bool)": {
						"encoding": "mapping",
						"key": "t_address",
						"label": "mapping(address => bool)",
						"numberOfBytes": "32",
						"value": "t_bool"
					},
					"t_mapping(t_address,t_uint256)": {
						"encoding": "mapping",
						"key": "t_address",
						"label": "mapping(address => uint256)",
						"numberOfBytes": "32",
						"value": "t_uint256"
					},
					"t_mapping(t_uint256,t_struct(Topic)14_storage)": {
						"encoding": "mapping",
						"key": "t_uint256",
						"label": "mapping(uint256 => struct VotingContract.Topic)",
						"numberOfBytes": "32",
						"value": "t_struct(Topic)14_storage"
					},
					"t_string_storage": {
						"encoding": "bytes",
						"label": "string",
						"numberOfBytes": "32"
					},
					"t_struct(Topic)14_storage": {
						"encoding": "inplace",
						"label": "struct VotingContract.Topic",
						"members": [
							{
								"astId": 7,
								"contract": "VotingContract.sol:VotingContract",
								"label": "title",
								"offset": 0,
								"slot": "0",
								"type": "t_string_storage"
							},
							{
								"astId": 9,
								"contract": "VotingContract.sol:VotingContract",
								"label": "description",
								"offset": 0,
								"slot": "1",
								"type": "t_string_storage"
							},
							{
								"astId": 13,
								"contract": "VotingContract.sol:VotingContract",
								"label": "hasVoted",
								"offset": 0,
								"slot": "2",
								"type": "t_mapping(t_address,t_bool)"
							}
						],
						"numberOfBytes": "96"
					},
					"t_uint256": {
						"encoding": "inplace",
						"label": "uint256",
						"numberOfBytes": "32"
					}
				}
			},
			"userdoc": {
				"kind": "user",
				"methods": {},
				"version": 1
			}
		}
	}
}